{
  "contractName": "Assert",
  "abi": [
    {
      "anonymous": false,
      "inputs": [
        {
          "indexed": true,
          "name": "result",
          "type": "bool"
        },
        {
          "indexed": false,
          "name": "message",
          "type": "string"
        }
      ],
      "name": "TestEvent",
      "type": "event"
    },
    {
      "constant": true,
      "inputs": [
        {
          "name": "message",
          "type": "string"
        }
      ],
      "name": "fail",
      "outputs": [
        {
          "name": "result",
          "type": "bool"
        }
      ],
      "payable": false,
      "stateMutability": "view",
      "type": "function"
    },
    {
      "constant": true,
      "inputs": [
        {
          "name": "str",
          "type": "string"
        },
        {
          "name": "message",
          "type": "string"
        }
      ],
      "name": "isEmpty",
      "outputs": [
        {
          "name": "result",
          "type": "bool"
        }
      ],
      "payable": false,
      "stateMutability": "view",
      "type": "function"
    },
    {
      "constant": true,
      "inputs": [
        {
          "name": "str",
          "type": "string"
        },
        {
          "name": "message",
          "type": "string"
        }
      ],
      "name": "isNotEmpty",
      "outputs": [
        {
          "name": "result",
          "type": "bool"
        }
      ],
      "payable": false,
      "stateMutability": "view",
      "type": "function"
    },
    {
      "constant": true,
      "inputs": [
        {
          "name": "b",
          "type": "bool"
        },
        {
          "name": "message",
          "type": "string"
        }
      ],
      "name": "isTrue",
      "outputs": [
        {
          "name": "result",
          "type": "bool"
        }
      ],
      "payable": false,
      "stateMutability": "view",
      "type": "function"
    },
    {
      "constant": true,
      "inputs": [
        {
          "name": "b",
          "type": "bool"
        },
        {
          "name": "message",
          "type": "string"
        }
      ],
      "name": "isFalse",
      "outputs": [
        {
          "name": "result",
          "type": "bool"
        }
      ],
      "payable": false,
      "stateMutability": "view",
      "type": "function"
    },
    {
      "constant": true,
      "inputs": [
        {
          "name": "A",
          "type": "uint256"
        },
        {
          "name": "B",
          "type": "uint256"
        },
        {
          "name": "message",
          "type": "string"
        }
      ],
      "name": "isAbove",
      "outputs": [
        {
          "name": "result",
          "type": "bool"
        }
      ],
      "payable": false,
      "stateMutability": "view",
      "type": "function"
    },
    {
      "constant": true,
      "inputs": [
        {
          "name": "A",
          "type": "int256"
        },
        {
          "name": "B",
          "type": "int256"
        },
        {
          "name": "message",
          "type": "string"
        }
      ],
      "name": "isAbove",
      "outputs": [
        {
          "name": "result",
          "type": "bool"
        }
      ],
      "payable": false,
      "stateMutability": "view",
      "type": "function"
    },
    {
      "constant": true,
      "inputs": [
        {
          "name": "A",
          "type": "int256"
        },
        {
          "name": "B",
          "type": "int256"
        },
        {
          "name": "message",
          "type": "string"
        }
      ],
      "name": "isAtLeast",
      "outputs": [
        {
          "name": "result",
          "type": "bool"
        }
      ],
      "payable": false,
      "stateMutability": "view",
      "type": "function"
    },
    {
      "constant": true,
      "inputs": [
        {
          "name": "A",
          "type": "uint256"
        },
        {
          "name": "B",
          "type": "uint256"
        },
        {
          "name": "message",
          "type": "string"
        }
      ],
      "name": "isAtLeast",
      "outputs": [
        {
          "name": "result",
          "type": "bool"
        }
      ],
      "payable": false,
      "stateMutability": "view",
      "type": "function"
    },
    {
      "constant": true,
      "inputs": [
        {
          "name": "A",
          "type": "uint256"
        },
        {
          "name": "B",
          "type": "uint256"
        },
        {
          "name": "message",
          "type": "string"
        }
      ],
      "name": "isBelow",
      "outputs": [
        {
          "name": "result",
          "type": "bool"
        }
      ],
      "payable": false,
      "stateMutability": "view",
      "type": "function"
    },
    {
      "constant": true,
      "inputs": [
        {
          "name": "A",
          "type": "int256"
        },
        {
          "name": "B",
          "type": "int256"
        },
        {
          "name": "message",
          "type": "string"
        }
      ],
      "name": "isBelow",
      "outputs": [
        {
          "name": "result",
          "type": "bool"
        }
      ],
      "payable": false,
      "stateMutability": "view",
      "type": "function"
    },
    {
      "constant": true,
      "inputs": [
        {
          "name": "A",
          "type": "uint256"
        },
        {
          "name": "B",
          "type": "uint256"
        },
        {
          "name": "message",
          "type": "string"
        }
      ],
      "name": "isAtMost",
      "outputs": [
        {
          "name": "result",
          "type": "bool"
        }
      ],
      "payable": false,
      "stateMutability": "view",
      "type": "function"
    },
    {
      "constant": true,
      "inputs": [
        {
          "name": "A",
          "type": "int256"
        },
        {
          "name": "B",
          "type": "int256"
        },
        {
          "name": "message",
          "type": "string"
        }
      ],
      "name": "isAtMost",
      "outputs": [
        {
          "name": "result",
          "type": "bool"
        }
      ],
      "payable": false,
      "stateMutability": "view",
      "type": "function"
    },
    {
      "constant": true,
      "inputs": [
        {
          "name": "number",
          "type": "int256"
        },
        {
          "name": "message",
          "type": "string"
        }
      ],
      "name": "isZero",
      "outputs": [
        {
          "name": "result",
          "type": "bool"
        }
      ],
      "payable": false,
      "stateMutability": "view",
      "type": "function"
    },
    {
      "constant": true,
      "inputs": [
        {
          "name": "bts",
          "type": "bytes32"
        },
        {
          "name": "message",
          "type": "string"
        }
      ],
      "name": "isZero",
      "outputs": [
        {
          "name": "result",
          "type": "bool"
        }
      ],
      "payable": false,
      "stateMutability": "view",
      "type": "function"
    },
    {
      "constant": true,
      "inputs": [
        {
          "name": "number",
          "type": "uint256"
        },
        {
          "name": "message",
          "type": "string"
        }
      ],
      "name": "isZero",
      "outputs": [
        {
          "name": "result",
          "type": "bool"
        }
      ],
      "payable": false,
      "stateMutability": "view",
      "type": "function"
    },
    {
      "constant": true,
      "inputs": [
        {
          "name": "addr",
          "type": "address"
        },
        {
          "name": "message",
          "type": "string"
        }
      ],
      "name": "isZero",
      "outputs": [
        {
          "name": "result",
          "type": "bool"
        }
      ],
      "payable": false,
      "stateMutability": "view",
      "type": "function"
    },
    {
      "constant": true,
      "inputs": [
        {
          "name": "bts",
          "type": "bytes32"
        },
        {
          "name": "message",
          "type": "string"
        }
      ],
      "name": "isNotZero",
      "outputs": [
        {
          "name": "result",
          "type": "bool"
        }
      ],
      "payable": false,
      "stateMutability": "view",
      "type": "function"
    },
    {
      "constant": true,
      "inputs": [
        {
          "name": "number",
          "type": "int256"
        },
        {
          "name": "message",
          "type": "string"
        }
      ],
      "name": "isNotZero",
      "outputs": [
        {
          "name": "result",
          "type": "bool"
        }
      ],
      "payable": false,
      "stateMutability": "view",
      "type": "function"
    },
    {
      "constant": true,
      "inputs": [
        {
          "name": "number",
          "type": "uint256"
        },
        {
          "name": "message",
          "type": "string"
        }
      ],
      "name": "isNotZero",
      "outputs": [
        {
          "name": "result",
          "type": "bool"
        }
      ],
      "payable": false,
      "stateMutability": "view",
      "type": "function"
    },
    {
      "constant": true,
      "inputs": [
        {
          "name": "addr",
          "type": "address"
        },
        {
          "name": "message",
          "type": "string"
        }
      ],
      "name": "isNotZero",
      "outputs": [
        {
          "name": "result",
          "type": "bool"
        }
      ],
      "payable": false,
      "stateMutability": "view",
      "type": "function"
    },
    {
      "constant": true,
      "inputs": [
        {
          "name": "A",
          "type": "bool"
        },
        {
          "name": "B",
          "type": "bool"
        },
        {
          "name": "message",
          "type": "string"
        }
      ],
      "name": "equal",
      "outputs": [
        {
          "name": "result",
          "type": "bool"
        }
      ],
      "payable": false,
      "stateMutability": "view",
      "type": "function"
    },
    {
      "constant": true,
      "inputs": [
        {
          "name": "A",
          "type": "address"
        },
        {
          "name": "B",
          "type": "address"
        },
        {
          "name": "message",
          "type": "string"
        }
      ],
      "name": "equal",
      "outputs": [
        {
          "name": "result",
          "type": "bool"
        }
      ],
      "payable": false,
      "stateMutability": "view",
      "type": "function"
    },
    {
      "constant": true,
      "inputs": [
        {
          "name": "A",
          "type": "int256"
        },
        {
          "name": "B",
          "type": "int256"
        },
        {
          "name": "message",
          "type": "string"
        }
      ],
      "name": "equal",
      "outputs": [
        {
          "name": "result",
          "type": "bool"
        }
      ],
      "payable": false,
      "stateMutability": "view",
      "type": "function"
    },
    {
      "constant": true,
      "inputs": [
        {
          "name": "A",
          "type": "bytes32"
        },
        {
          "name": "B",
          "type": "bytes32"
        },
        {
          "name": "message",
          "type": "string"
        }
      ],
      "name": "equal",
      "outputs": [
        {
          "name": "result",
          "type": "bool"
        }
      ],
      "payable": false,
      "stateMutability": "view",
      "type": "function"
    },
    {
      "constant": true,
      "inputs": [
        {
          "name": "arrA",
          "type": "address[]"
        },
        {
          "name": "arrB",
          "type": "address[]"
        },
        {
          "name": "message",
          "type": "string"
        }
      ],
      "name": "equal",
      "outputs": [
        {
          "name": "result",
          "type": "bool"
        }
      ],
      "payable": false,
      "stateMutability": "view",
      "type": "function"
    },
    {
      "constant": true,
      "inputs": [
        {
          "name": "arrA",
          "type": "int256[]"
        },
        {
          "name": "arrB",
          "type": "int256[]"
        },
        {
          "name": "message",
          "type": "string"
        }
      ],
      "name": "equal",
      "outputs": [
        {
          "name": "result",
          "type": "bool"
        }
      ],
      "payable": false,
      "stateMutability": "view",
      "type": "function"
    },
    {
      "constant": true,
      "inputs": [
        {
          "name": "A",
          "type": "uint256"
        },
        {
          "name": "B",
          "type": "uint256"
        },
        {
          "name": "message",
          "type": "string"
        }
      ],
      "name": "equal",
      "outputs": [
        {
          "name": "result",
          "type": "bool"
        }
      ],
      "payable": false,
      "stateMutability": "view",
      "type": "function"
    },
    {
      "constant": true,
      "inputs": [
        {
          "name": "A",
          "type": "string"
        },
        {
          "name": "B",
          "type": "string"
        },
        {
          "name": "message",
          "type": "string"
        }
      ],
      "name": "equal",
      "outputs": [
        {
          "name": "result",
          "type": "bool"
        }
      ],
      "payable": false,
      "stateMutability": "view",
      "type": "function"
    },
    {
      "constant": true,
      "inputs": [
        {
          "name": "arrA",
          "type": "bytes32[]"
        },
        {
          "name": "arrB",
          "type": "bytes32[]"
        },
        {
          "name": "message",
          "type": "string"
        }
      ],
      "name": "equal",
      "outputs": [
        {
          "name": "result",
          "type": "bool"
        }
      ],
      "payable": false,
      "stateMutability": "view",
      "type": "function"
    },
    {
      "constant": true,
      "inputs": [
        {
          "name": "arrA",
          "type": "uint256[]"
        },
        {
          "name": "arrB",
          "type": "uint256[]"
        },
        {
          "name": "message",
          "type": "string"
        }
      ],
      "name": "equal",
      "outputs": [
        {
          "name": "result",
          "type": "bool"
        }
      ],
      "payable": false,
      "stateMutability": "view",
      "type": "function"
    },
    {
      "constant": true,
      "inputs": [
        {
          "name": "A",
          "type": "string"
        },
        {
          "name": "B",
          "type": "string"
        },
        {
          "name": "message",
          "type": "string"
        }
      ],
      "name": "notEqual",
      "outputs": [
        {
          "name": "result",
          "type": "bool"
        }
      ],
      "payable": false,
      "stateMutability": "view",
      "type": "function"
    },
    {
      "constant": true,
      "inputs": [
        {
          "name": "A",
          "type": "int256"
        },
        {
          "name": "B",
          "type": "int256"
        },
        {
          "name": "message",
          "type": "string"
        }
      ],
      "name": "notEqual",
      "outputs": [
        {
          "name": "result",
          "type": "bool"
        }
      ],
      "payable": false,
      "stateMutability": "view",
      "type": "function"
    },
    {
      "constant": true,
      "inputs": [
        {
          "name": "A",
          "type": "bytes32"
        },
        {
          "name": "B",
          "type": "bytes32"
        },
        {
          "name": "message",
          "type": "string"
        }
      ],
      "name": "notEqual",
      "outputs": [
        {
          "name": "result",
          "type": "bool"
        }
      ],
      "payable": false,
      "stateMutability": "view",
      "type": "function"
    },
    {
      "constant": true,
      "inputs": [
        {
          "name": "A",
          "type": "uint256"
        },
        {
          "name": "B",
          "type": "uint256"
        },
        {
          "name": "message",
          "type": "string"
        }
      ],
      "name": "notEqual",
      "outputs": [
        {
          "name": "result",
          "type": "bool"
        }
      ],
      "payable": false,
      "stateMutability": "view",
      "type": "function"
    },
    {
      "constant": true,
      "inputs": [
        {
          "name": "arrA",
          "type": "bytes32[]"
        },
        {
          "name": "arrB",
          "type": "bytes32[]"
        },
        {
          "name": "message",
          "type": "string"
        }
      ],
      "name": "notEqual",
      "outputs": [
        {
          "name": "result",
          "type": "bool"
        }
      ],
      "payable": false,
      "stateMutability": "view",
      "type": "function"
    },
    {
      "constant": true,
      "inputs": [
        {
          "name": "arrA",
          "type": "uint256[]"
        },
        {
          "name": "arrB",
          "type": "uint256[]"
        },
        {
          "name": "message",
          "type": "string"
        }
      ],
      "name": "notEqual",
      "outputs": [
        {
          "name": "result",
          "type": "bool"
        }
      ],
      "payable": false,
      "stateMutability": "view",
      "type": "function"
    },
    {
      "constant": true,
      "inputs": [
        {
          "name": "A",
          "type": "address"
        },
        {
          "name": "B",
          "type": "address"
        },
        {
          "name": "message",
          "type": "string"
        }
      ],
      "name": "notEqual",
      "outputs": [
        {
          "name": "result",
          "type": "bool"
        }
      ],
      "payable": false,
      "stateMutability": "view",
      "type": "function"
    },
    {
      "constant": true,
      "inputs": [
        {
          "name": "arrA",
          "type": "address[]"
        },
        {
          "name": "arrB",
          "type": "address[]"
        },
        {
          "name": "message",
          "type": "string"
        }
      ],
      "name": "notEqual",
      "outputs": [
        {
          "name": "result",
          "type": "bool"
        }
      ],
      "payable": false,
      "stateMutability": "view",
      "type": "function"
    },
    {
      "constant": true,
      "inputs": [
        {
          "name": "A",
          "type": "bool"
        },
        {
          "name": "B",
          "type": "bool"
        },
        {
          "name": "message",
          "type": "string"
        }
      ],
      "name": "notEqual",
      "outputs": [
        {
          "name": "result",
          "type": "bool"
        }
      ],
      "payable": false,
      "stateMutability": "view",
      "type": "function"
    },
    {
      "constant": true,
      "inputs": [
        {
          "name": "arrA",
          "type": "int256[]"
        },
        {
          "name": "arrB",
          "type": "int256[]"
        },
        {
          "name": "message",
          "type": "string"
        }
      ],
      "name": "notEqual",
      "outputs": [
        {
          "name": "result",
          "type": "bool"
        }
      ],
      "payable": false,
      "stateMutability": "view",
      "type": "function"
    },
    {
      "constant": true,
      "inputs": [
        {
          "name": "arr",
          "type": "int256[]"
        },
        {
          "name": "length",
          "type": "uint256"
        },
        {
          "name": "message",
          "type": "string"
        }
      ],
      "name": "lengthEqual",
      "outputs": [
        {
          "name": "result",
          "type": "bool"
        }
      ],
      "payable": false,
      "stateMutability": "view",
      "type": "function"
    },
    {
      "constant": true,
      "inputs": [
        {
          "name": "arr",
          "type": "uint256[]"
        },
        {
          "name": "length",
          "type": "uint256"
        },
        {
          "name": "message",
          "type": "string"
        }
      ],
      "name": "lengthEqual",
      "outputs": [
        {
          "name": "result",
          "type": "bool"
        }
      ],
      "payable": false,
      "stateMutability": "view",
      "type": "function"
    },
    {
      "constant": true,
      "inputs": [
        {
          "name": "arr",
          "type": "bytes32[]"
        },
        {
          "name": "length",
          "type": "uint256"
        },
        {
          "name": "message",
          "type": "string"
        }
      ],
      "name": "lengthEqual",
      "outputs": [
        {
          "name": "result",
          "type": "bool"
        }
      ],
      "payable": false,
      "stateMutability": "view",
      "type": "function"
    },
    {
      "constant": true,
      "inputs": [
        {
          "name": "arr",
          "type": "address[]"
        },
        {
          "name": "length",
          "type": "uint256"
        },
        {
          "name": "message",
          "type": "string"
        }
      ],
      "name": "lengthEqual",
      "outputs": [
        {
          "name": "result",
          "type": "bool"
        }
      ],
      "payable": false,
      "stateMutability": "view",
      "type": "function"
    },
    {
      "constant": true,
      "inputs": [
        {
          "name": "arr",
          "type": "bytes32[]"
        },
        {
          "name": "length",
          "type": "uint256"
        },
        {
          "name": "message",
          "type": "string"
        }
      ],
      "name": "lengthNotEqual",
      "outputs": [
        {
          "name": "result",
          "type": "bool"
        }
      ],
      "payable": false,
      "stateMutability": "view",
      "type": "function"
    },
    {
      "constant": true,
      "inputs": [
        {
          "name": "arr",
          "type": "int256[]"
        },
        {
          "name": "length",
          "type": "uint256"
        },
        {
          "name": "message",
          "type": "string"
        }
      ],
      "name": "lengthNotEqual",
      "outputs": [
        {
          "name": "result",
          "type": "bool"
        }
      ],
      "payable": false,
      "stateMutability": "view",
      "type": "function"
    },
    {
      "constant": true,
      "inputs": [
        {
          "name": "arr",
          "type": "address[]"
        },
        {
          "name": "length",
          "type": "uint256"
        },
        {
          "name": "message",
          "type": "string"
        }
      ],
      "name": "lengthNotEqual",
      "outputs": [
        {
          "name": "result",
          "type": "bool"
        }
      ],
      "payable": false,
      "stateMutability": "view",
      "type": "function"
    },
    {
      "constant": true,
      "inputs": [
        {
          "name": "arr",
          "type": "uint256[]"
        },
        {
          "name": "length",
          "type": "uint256"
        },
        {
          "name": "message",
          "type": "string"
        }
      ],
      "name": "lengthNotEqual",
      "outputs": [
        {
          "name": "result",
          "type": "bool"
        }
      ],
      "payable": false,
      "stateMutability": "view",
      "type": "function"
    },
    {
      "constant": true,
      "inputs": [
        {
          "name": "A",
          "type": "address"
        },
        {
          "name": "b",
          "type": "uint256"
        },
        {
          "name": "message",
          "type": "string"
        }
      ],
      "name": "balanceEqual",
      "outputs": [
        {
          "name": "result",
          "type": "bool"
        }
      ],
      "payable": false,
      "stateMutability": "view",
      "type": "function"
    },
    {
      "constant": true,
      "inputs": [
        {
          "name": "A",
          "type": "address"
        },
        {
          "name": "b",
          "type": "uint256"
        },
        {
          "name": "message",
          "type": "string"
        }
      ],
      "name": "balanceNotEqual",
      "outputs": [
        {
          "name": "result",
          "type": "bool"
        }
      ],
      "payable": false,
      "stateMutability": "view",
      "type": "function"
    },
    {
      "constant": true,
      "inputs": [
        {
          "name": "A",
          "type": "address"
        },
        {
          "name": "message",
          "type": "string"
        }
      ],
      "name": "balanceIsZero",
      "outputs": [
        {
          "name": "result",
          "type": "bool"
        }
      ],
      "payable": false,
      "stateMutability": "view",
      "type": "function"
    },
    {
      "constant": true,
      "inputs": [
        {
          "name": "A",
          "type": "address"
        },
        {
          "name": "message",
          "type": "string"
        }
      ],
      "name": "balanceIsNotZero",
      "outputs": [
        {
          "name": "result",
          "type": "bool"
        }
      ],
      "payable": false,
      "stateMutability": "view",
      "type": "function"
    }
  ],
  "bytecode": "0x6060604052341561000f57600080fd5b6155f1806200001f6000396000f30060606040526004361061027d576000357c0100000000000000000000000000000000000000000000000000000000900463ffffffff16806306ea29c214610282578063073933ed1461036c5780630a17d422146103df578063100fd02f146104525780631042604f146104ce5780631cdadfae146105435780631d1997a0146105d55780631d45e9e1146106885780632441595314610772578063247cf1aa1461082557806325fa0131146108d85780632d1a6477146109615780633108f0d714610a1457806333967c7414610a8757806344781a0014610afe578063451febcc14610b7e57806349f9793914610c685780634e3e403514610d58578063556fe56214610dd4578063561015e214610e585780635686145014610ed457806366ae935f14610f505780636981543514610fe257806372a7d8c91461105e578063767392b31461111157806378122f3a1461119157806379f7a873146111fb5780637eb5df391461127757806385203aa2146113615780638aeb8f98146114145780638e0f65eb146114c157806391872a911461153d57806391ec845e146115ea5780639a40d8f514611666578063a063dae814611750578063a3c66c1d1461183a578063abcd796014611924578063acd5fb23146119a0578063b06939a214611a13578063b13bdfb614611afd578063b5ba707414611b79578063b8f2853114611bf5578063bf125c4914611c9d578063bfba5dd614611d26578063c37db25314611dce578063df0f3e1c14611e45578063e8c2cb1614611eba578063ea79dd7914611faa578063ee712f591461202e578063f327b7fc146120b7578063f5bae6b614612140578063fb1fdc2e146121bc578063fea5d9e01461226f575b600080fd5b6103526004808035906020019082018035906020019080806020026020016040519081016040528093929190818152602001838360200280828437820191505050505050919080359060200190820180359060200190808060200260200160405190810160405280939291908181526020018383602002808284378201915050505050509190803590602001908201803590602001908080601f01602080910402602001604051908101604052809392919081815260200183838082843782019150505050505091905050612322565b604051808215151515815260200191505060405180910390f35b6103c5600480803590602001909190803590602001908201803590602001908080601f016020809104026020016040519081016040528093929190818152602001838380828437820191505050505050919050506123a3565b604051808215151515815260200191505060405180910390f35b610438600480803590602001909190803590602001908201803590602001908080601f01602080910402602001604051908101604052809392919081815260200183838082843782019150505050505091905050612418565b604051808215151515815260200191505060405180910390f35b6104b4600480803590602001909190803590602001909190803590602001908201803590602001908080601f0160208091040260200160405190810160405280939291908181526020018383808284378201915050505050509190505061248c565b604051808215151515815260200191505060405180910390f35b6105296004808035151590602001909190803590602001908201803590602001908080601f01602080910402602001604051908101604052809392919081815260200183838082843782019150505050505091905050612540565b604051808215151515815260200191505060405180910390f35b6105bb600480803573ffffffffffffffffffffffffffffffffffffffff1690602001909190803590602001909190803590602001908201803590602001908080601f01602080910402602001604051908101604052809392919081815260200183838082843782019150505050505091905050612555565b604051808215151515815260200191505060405180910390f35b61066e60048080359060200190820180359060200190808060200260200160405190810160405280939291908181526020018383602002808284378201915050505050509190803590602001909190803590602001908201803590602001908080601f01602080910402602001604051908101604052809392919081815260200183838082843782019150505050505091905050612585565b604051808215151515815260200191505060405180910390f35b6107586004808035906020019082018035906020019080806020026020016040519081016040528093929190818152602001838360200280828437820191505050505050919080359060200190820180359060200190808060200260200160405190810160405280939291908181526020018383602002808284378201915050505050509190803590602001908201803590602001908080601f0160208091040260200160405190810160405280939291908181526020018383808284378201915050505050509190505061264e565b604051808215151515815260200191505060405180910390f35b61080b60048080359060200190820180359060200190808060200260200160405190810160405280939291908181526020018383602002808284378201915050505050509190803590602001909190803590602001908201803590602001908080601f016020809104026020016040519081016040528093929190818152602001838380828437820191505050505050919050506126cf565b604051808215151515815260200191505060405180910390f35b6108be60048080359060200190820180359060200190808060200260200160405190810160405280939291908181526020018383602002808284378201915050505050509190803590602001909190803590602001908201803590602001908080601f01602080910402602001604051908101604052809392919081815260200183838082843782019150505050505091905050612796565b604051808215151515815260200191505060405180910390f35b610947600480803573ffffffffffffffffffffffffffffffffffffffff1690602001909190803590602001908201803590602001908080601f0160208091040260200160405190810160405280939291908181526020018383808284378201915050505050509190505061285f565b604051808215151515815260200191505060405180910390f35b6109fa60048080359060200190820180359060200190808060200260200160405190810160405280939291908181526020018383602002808284378201915050505050509190803590602001909190803590602001908201803590602001908080601f016020809104026020016040519081016040528093929190818152602001838380828437820191505050505050919050506128a2565b604051808215151515815260200191505060405180910390f35b610a6d600480803590602001909190803590602001908201803590602001908080601f01602080910402602001604051908101604052809392919081815260200183838082843782019150505050505091905050612969565b604051808215151515815260200191505060405180910390f35b610ae460048080356000191690602001909190803590602001908201803590602001908080601f016020809104026020016040519081016040528093929190818152602001838380828437820191505050505050919050506129de565b604051808215151515815260200191505060405180910390f35b610b6460048080351515906020019091908035151590602001909190803590602001908201803590602001908080601f01602080910402602001604051908101604052809392919081815260200183838082843782019150505050505091905050612a00565b604051808215151515815260200191505060405180910390f35b610c4e6004808035906020019082018035906020019080806020026020016040519081016040528093929190818152602001838360200280828437820191505050505050919080359060200190820180359060200190808060200260200160405190810160405280939291908181526020018383602002808284378201915050505050509190803590602001908201803590602001908080601f01602080910402602001604051908101604052809392919081815260200183838082843782019150505050505091905050612ab9565b604051808215151515815260200191505060405180910390f35b610d3e600480803590602001908201803590602001908080601f0160208091040260200160405190810160405280939291908181526020018383808284378201915050505050509190803590602001908201803590602001908080601f0160208091040260200160405190810160405280939291908181526020018383808284378201915050505050509190803590602001908201803590602001908080601f01602080910402602001604051908101604052809392919081815260200183838082843782019150505050505091905050612b3f565b604051808215151515815260200191505060405180910390f35b610dba600480803590602001909190803590602001909190803590602001908201803590602001908080601f01602080910402602001604051908101604052809392919081815260200183838082843782019150505050505091905050612bfb565b604051808215151515815260200191505060405180910390f35b610e3e6004808035600019169060200190919080356000191690602001909190803590602001908201803590602001908080601f01602080910402602001604051908101604052809392919081815260200183838082843782019150505050505091905050612cb0565b604051808215151515815260200191505060405180910390f35b610eba600480803590602001909190803590602001909190803590602001908201803590602001908080601f01602080910402602001604051908101604052809392919081815260200183838082843782019150505050505091905050612cd1565b604051808215151515815260200191505060405180910390f35b610f36600480803590602001909190803590602001909190803590602001908201803590602001908080601f01602080910402602001604051908101604052809392919081815260200183838082843782019150505050505091905050612d86565b604051808215151515815260200191505060405180910390f35b610fc8600480803573ffffffffffffffffffffffffffffffffffffffff1690602001909190803590602001909190803590602001908201803590602001908080601f01602080910402602001604051908101604052809392919081815260200183838082843782019150505050505091905050612e3b565b604051808215151515815260200191505060405180910390f35b611044600480803590602001909190803590602001909190803590602001908201803590602001908080601f01602080910402602001604051908101604052809392919081815260200183838082843782019150505050505091905050612e6a565b604051808215151515815260200191505060405180910390f35b6110f760048080359060200190820180359060200190808060200260200160405190810160405280939291908181526020018383602002808284378201915050505050509190803590602001909190803590602001908201803590602001908080601f01602080910402602001604051908101604052809392919081815260200183838082843782019150505050505091905050612f1e565b604051808215151515815260200191505060405180910390f35b61117760048080351515906020019091908035151590602001909190803590602001908201803590602001908080601f01602080910402602001604051908101604052809392919081815260200183838082843782019150505050505091905050612fe5565b604051808215151515815260200191505060405180910390f35b6111e1600480803590602001908201803590602001908080601f0160208091040260200160405190810160405280939291908181526020018383808284378201915050505050509190505061309d565b604051808215151515815260200191505060405180910390f35b61125d600480803590602001909190803590602001909190803590602001908201803590602001908080601f016020809104026020016040519081016040528093929190818152602001838380828437820191505050505050919050506130b3565b604051808215151515815260200191505060405180910390f35b6113476004808035906020019082018035906020019080806020026020016040519081016040528093929190818152602001838360200280828437820191505050505050919080359060200190820180359060200190808060200260200160405190810160405280939291908181526020018383602002808284378201915050505050509190803590602001908201803590602001908080601f01602080910402602001604051908101604052809392919081815260200183838082843782019150505050505091905050613168565b604051808215151515815260200191505060405180910390f35b6113fa60048080359060200190820180359060200190808060200260200160405190810160405280939291908181526020018383602002808284378201915050505050509190803590602001909190803590602001908201803590602001908080601f016020809104026020016040519081016040528093929190818152602001838380828437820191505050505050919050506131e6565b604051808215151515815260200191505060405180910390f35b6114a7600480803590602001908201803590602001908080601f0160208091040260200160405190810160405280939291908181526020018383808284378201915050505050509190803590602001908201803590602001908080601f016020809104026020016040519081016040528093929190818152602001838380828437820191505050505050919050506132af565b604051808215151515815260200191505060405180910390f35b611523600480803590602001909190803590602001909190803590602001908201803590602001908080601f0160208091040260200160405190810160405280939291908181526020018383808284378201915050505050509190505061333b565b604051808215151515815260200191505060405180910390f35b6115d0600480803590602001908201803590602001908080601f0160208091040260200160405190810160405280939291908181526020018383808284378201915050505050509190803590602001908201803590602001908080601f016020809104026020016040519081016040528093929190818152602001838380828437820191505050505050919050506133ef565b604051808215151515815260200191505060405180910390f35b61164c600480803590602001909190803590602001909190803590602001908201803590602001908080601f0160208091040260200160405190810160405280939291908181526020018383808284378201915050505050509190505061347a565b604051808215151515815260200191505060405180910390f35b6117366004808035906020019082018035906020019080806020026020016040519081016040528093929190818152602001838360200280828437820191505050505050919080359060200190820180359060200190808060200260200160405190810160405280939291908181526020018383602002808284378201915050505050509190803590602001908201803590602001908080601f0160208091040260200160405190810160405280939291908181526020018383808284378201915050505050509190505061352f565b604051808215151515815260200191505060405180910390f35b6118206004808035906020019082018035906020019080806020026020016040519081016040528093929190818152602001838360200280828437820191505050505050919080359060200190820180359060200190808060200260200160405190810160405280939291908181526020018383602002808284378201915050505050509190803590602001908201803590602001908080601f016020809104026020016040519081016040528093929190818152602001838380828437820191505050505050919050506135d9565b604051808215151515815260200191505060405180910390f35b61190a6004808035906020019082018035906020019080806020026020016040519081016040528093929190818152602001838360200280828437820191505050505050919080359060200190820180359060200190808060200260200160405190810160405280939291908181526020018383602002808284378201915050505050509190803590602001908201803590602001908080601f01602080910402602001604051908101604052809392919081815260200183838082843782019150505050505091905050613657565b604051808215151515815260200191505060405180910390f35b611986600480803590602001909190803590602001909190803590602001908201803590602001908080601f016020809104026020016040519081016040528093929190818152602001838380828437820191505050505050919050506136e0565b604051808215151515815260200191505060405180910390f35b6119f9600480803590602001909190803590602001908201803590602001908080601f01602080910402602001604051908101604052809392919081815260200183838082843782019150505050505091905050613794565b604051808215151515815260200191505060405180910390f35b611ae36004808035906020019082018035906020019080806020026020016040519081016040528093929190818152602001838360200280828437820191505050505050919080359060200190820180359060200190808060200260200160405190810160405280939291908181526020018383602002808284378201915050505050509190803590602001908201803590602001908080601f01602080910402602001604051908101604052809392919081815260200183838082843782019150505050505091905050613808565b604051808215151515815260200191505060405180910390f35b611b5f600480803590602001909190803590602001909190803590602001908201803590602001908080601f016020809104026020016040519081016040528093929190818152602001838380828437820191505050505050919050506138b5565b604051808215151515815260200191505060405180910390f35b611bdb600480803590602001909190803590602001909190803590602001908201803590602001908080601f0160208091040260200160405190810160405280939291908181526020018383808284378201915050505050509190505061396a565b604051808215151515815260200191505060405180910390f35b611c83600480803573ffffffffffffffffffffffffffffffffffffffff1690602001909190803573ffffffffffffffffffffffffffffffffffffffff1690602001909190803590602001908201803590602001908080601f01602080910402602001604051908101604052809392919081815260200183838082843782019150505050505091905050613a1e565b604051808215151515815260200191505060405180910390f35b611d0c600480803573ffffffffffffffffffffffffffffffffffffffff1690602001909190803590602001908201803590602001908080601f01602080910402602001604051908101604052809392919081815260200183838082843782019150505050505091905050613a63565b604051808215151515815260200191505060405180910390f35b611db4600480803573ffffffffffffffffffffffffffffffffffffffff1690602001909190803573ffffffffffffffffffffffffffffffffffffffff1690602001909190803590602001908201803590602001908080601f01602080910402602001604051908101604052809392919081815260200183838082843782019150505050505091905050613a91565b604051808215151515815260200191505060405180910390f35b611e2b60048080356000191690602001909190803590602001908201803590602001908080601f01602080910402602001604051908101604052809392919081815260200183838082843782019150505050505091905050613ad5565b604051808215151515815260200191505060405180910390f35b611ea06004808035151590602001909190803590602001908201803590602001908080601f01602080910402602001604051908101604052809392919081815260200183838082843782019150505050505091905050613af8565b604051808215151515815260200191505060405180910390f35b611f90600480803590602001908201803590602001908080601f0160208091040260200160405190810160405280939291908181526020018383808284378201915050505050509190803590602001908201803590602001908080601f0160208091040260200160405190810160405280939291908181526020018383808284378201915050505050509190803590602001908201803590602001908080601f01602080910402602001604051908101604052809392919081815260200183838082843782019150505050505091905050613b0e565b604051808215151515815260200191505060405180910390f35b6120146004808035600019169060200190919080356000191690602001909190803590602001908201803590602001908080601f01602080910402602001604051908101604052809392919081815260200183838082843782019150505050505091905050613bc9565b604051808215151515815260200191505060405180910390f35b61209d600480803573ffffffffffffffffffffffffffffffffffffffff1690602001909190803590602001908201803590602001908080601f01602080910402602001604051908101604052809392919081815260200183838082843782019150505050505091905050613be9565b604051808215151515815260200191505060405180910390f35b612126600480803573ffffffffffffffffffffffffffffffffffffffff1690602001909190803590602001908201803590602001908080601f01602080910402602001604051908101604052809392919081815260200183838082843782019150505050505091905050613c18565b604051808215151515815260200191505060405180910390f35b6121a2600480803590602001909190803590602001909190803590602001908201803590602001908080601f01602080910402602001604051908101604052809392919081815260200183838082843782019150505050505091905050613c5c565b604051808215151515815260200191505060405180910390f35b61225560048080359060200190820180359060200190808060200260200160405190810160405280939291908181526020018383602002808284378201915050505050509190803590602001909190803590602001908201803590602001908080601f01602080910402602001604051908101604052809392919081815260200183838082843782019150505050505091905050613d10565b604051808215151515815260200191505060405180910390f35b61230860048080359060200190820180359060200190808060200260200160405190810160405280939291908181526020018383602002808284378201915050505050509190803590602001909190803590602001908201803590602001908080601f01602080910402602001604051908101604052809392919081815260200183838082843782019150505050505091905050613dd9565b604051808215151515815260200191505060405180910390f35b600080600084518651149150811561238f57600090505b855181101561238e57848181518110151561235057fe5b90602001906020020151868281518110151561236857fe5b906020019060200201511415612381576001915061238e565b8080600101915050612339565b5b61239a821585613ea0565b50509392505050565b600080831415905080156123c0576123bb8183613ea0565b612412565b6124118161240c612406866040805190810160405280600681526020017f5465737465640000000000000000000000000000000000000000000000000000815250613f97565b85613fc7565b613ea0565b5b92915050565b6000808314905080156124345761242f8183613ea0565b612486565b6124858161248061247a866040805190810160405280600681526020017f54657374656400000000000000000000000000000000000000000000000000008152506142d2565b85613fc7565b613ea0565b5b92915050565b6000828413905080156124a8576124a38183613ea0565b612539565b612538816125336124ee876040805190810160405280600681526020017f5465737465640000000000000000000000000000000000000000000000000000815250613f97565b61252d876040805190810160405280600781526020017f416761696e737400000000000000000000000000000000000000000000000000815250613f97565b86614302565b613ea0565b5b9392505050565b600082905061254f8183613ea0565b92915050565b6000828473ffffffffffffffffffffffffffffffffffffffff16311415905061257e8183613ea0565b9392505050565b600080845190508451811415156125b5576125b0826020604051908101604052806000815250613ea0565b612646565b612645826126406125fb846040805190810160405280600681526020017f54657374656400000000000000000000000000000000000000000000000000008152506142d2565b61263a886040805190810160405280600781526020017f416761696e7374000000000000000000000000000000000000000000000000008152506142d2565b87614302565b613ea0565b5b509392505050565b60008060008451865114915081156126bb57600090505b85518110156126ba57848181518110151561267c57fe5b90602001906020020151868281518110151561269457fe5b9060200190602002015114156126ad57600191506126ba565b8080600101915050612665565b5b6126c6821585613ea0565b50509392505050565b60008084519050838114156126fd576126f8826020604051908101604052806000815250613ea0565b61278e565b61278d82612788612743846040805190810160405280600681526020017f54657374656400000000000000000000000000000000000000000000000000008152506142d2565b612782886040805190810160405280600781526020017f416761696e7374000000000000000000000000000000000000000000000000008152506142d2565b87614302565b613ea0565b5b509392505050565b600080845190508451811415156127c6576127c1826020604051908101604052806000815250613ea0565b612857565b6128568261285161280c846040805190810160405280600681526020017f54657374656400000000000000000000000000000000000000000000000000008152506142d2565b61284b886040805190810160405280600781526020017f416761696e7374000000000000000000000000000000000000000000000000008152506142d2565b87614302565b613ea0565b5b509392505050565b60008073ffffffffffffffffffffffffffffffffffffffff168373ffffffffffffffffffffffffffffffffffffffff1614905061289c8183613ea0565b92915050565b60008084519050838114156128d0576128cb826020604051908101604052806000815250613ea0565b612961565b6129608261295b612916846040805190810160405280600681526020017f54657374656400000000000000000000000000000000000000000000000000008152506142d2565b612955886040805190810160405280600781526020017f416761696e7374000000000000000000000000000000000000000000000000008152506142d2565b87614302565b613ea0565b5b509392505050565b60008083141590508015612986576129818183613ea0565b6129d8565b6129d7816129d26129cc866040805190810160405280600681526020017f54657374656400000000000000000000000000000000000000000000000000008152506142d2565b85613fc7565b613ea0565b5b92915050565b6000806001026000191683600019161490506129fa8183613ea0565b92915050565b6000821515841515141590508015612a2157612a1c8183613ea0565b612ab2565b612ab181612aac612a67876040805190810160405280600681526020017f54657374656400000000000000000000000000000000000000000000000000008152506147a4565b612aa6876040805190810160405280600781526020017f416761696e7374000000000000000000000000000000000000000000000000008152506147a4565b86614302565b613ea0565b5b9392505050565b600080835185511491508115612b2d57600090505b8451811015612b2c578381815181101515612ae557fe5b90602001906020020151600019168582815181101515612b0157fe5b9060200190602002015160001916141515612b1f5760009150612b2c565b8080600101915050612ace565b5b612b378284613ea0565b509392505050565b6000612b4b84846147d2565b1590508015612b6357612b5e8183613ea0565b612bf4565b612bf381612bee612ba9876040805190810160405280600681526020017f546573746564000000000000000000000000000000000000000000000000000081525061492f565b612be8876040805190810160405280600781526020017f416761696e73740000000000000000000000000000000000000000000000000081525061492f565b86614302565b613ea0565b5b9392505050565b60008284141590508015612c1857612c138183613ea0565b612ca9565b612ca881612ca3612c5e876040805190810160405280600681526020017f5465737465640000000000000000000000000000000000000000000000000000815250613f97565b612c9d876040805190810160405280600781526020017f416761696e737400000000000000000000000000000000000000000000000000815250613f97565b86614302565b613ea0565b5b9392505050565b60008260001916846000191614159050612cca8183613ea0565b9392505050565b60008284141590508015612cee57612ce98183613ea0565b612d7f565b612d7e81612d79612d34876040805190810160405280600681526020017f54657374656400000000000000000000000000000000000000000000000000008152506142d2565b612d73876040805190810160405280600781526020017f416761696e7374000000000000000000000000000000000000000000000000008152506142d2565b86614302565b613ea0565b5b9392505050565b60008284121590508015612da357612d9e8183613ea0565b612e34565b612e3381612e2e612de9876040805190810160405280600681526020017f5465737465640000000000000000000000000000000000000000000000000000815250613f97565b612e28876040805190810160405280600781526020017f416761696e737400000000000000000000000000000000000000000000000000815250613f97565b86614302565b613ea0565b5b9392505050565b6000828473ffffffffffffffffffffffffffffffffffffffff1631149050612e638183613ea0565b9392505050565b600082841190508015612e8657612e818183613ea0565b612f17565b612f1681612f11612ecc876040805190810160405280600681526020017f54657374656400000000000000000000000000000000000000000000000000008152506142d2565b612f0b876040805190810160405280600781526020017f416761696e7374000000000000000000000000000000000000000000000000008152506142d2565b86614302565b613ea0565b5b9392505050565b6000808451905083811415612f4c57612f47826020604051908101604052806000815250613ea0565b612fdd565b612fdc82612fd7612f92846040805190810160405280600681526020017f54657374656400000000000000000000000000000000000000000000000000008152506142d2565b612fd1886040805190810160405280600781526020017f416761696e7374000000000000000000000000000000000000000000000000008152506142d2565b87614302565b613ea0565b5b509392505050565b60008215158415151490508015613005576130008183613ea0565b613096565b6130958161309061304b876040805190810160405280600681526020017f54657374656400000000000000000000000000000000000000000000000000008152506147a4565b61308a876040805190810160405280600781526020017f416761696e7374000000000000000000000000000000000000000000000000008152506147a4565b86614302565b613ea0565b5b9392505050565b60006130aa600083613ea0565b60009050919050565b600082841015905080156130d0576130cb8183613ea0565b613161565b6131608161315b613116876040805190810160405280600681526020017f54657374656400000000000000000000000000000000000000000000000000008152506142d2565b613155876040805190810160405280600781526020017f416761696e7374000000000000000000000000000000000000000000000000008152506142d2565b86614302565b613ea0565b5b9392505050565b6000808351855114915081156131d457600090505b84518110156131d357838181518110151561319457fe5b9060200190602002015185828151811015156131ac57fe5b906020019060200201511415156131c657600091506131d3565b808060010191505061317d565b5b6131de8284613ea0565b509392505050565b6000808451905084518114151561321657613211826020604051908101604052806000815250613ea0565b6132a7565b6132a6826132a161325c846040805190810160405280600681526020017f54657374656400000000000000000000000000000000000000000000000000008152506142d2565b61329b886040805190810160405280600781526020017f416761696e7374000000000000000000000000000000000000000000000000008152506142d2565b87614302565b613ea0565b5b509392505050565b60006132cb8360206040519081016040528060008152506147d2565b15905080156132e3576132de8183613ea0565b613335565b6133348161332f613329866040805190810160405280600681526020017f546573746564000000000000000000000000000000000000000000000000000081525061492f565b85613fc7565b613ea0565b5b92915050565b600082841290508015613357576133528183613ea0565b6133e8565b6133e7816133e261339d876040805190810160405280600681526020017f5465737465640000000000000000000000000000000000000000000000000000815250613f97565b6133dc876040805190810160405280600781526020017f416761696e737400000000000000000000000000000000000000000000000000815250613f97565b86614302565b613ea0565b5b9392505050565b600061340b8360206040519081016040528060008152506147d2565b905080156134225761341d8183613ea0565b613474565b6134738161346e613468866040805190810160405280600681526020017f546573746564000000000000000000000000000000000000000000000000000081525061492f565b85613fc7565b613ea0565b5b92915050565b60008284131590508015613497576134928183613ea0565b613528565b613527816135226134dd876040805190810160405280600681526020017f5465737465640000000000000000000000000000000000000000000000000000815250613f97565b61351c876040805190810160405280600781526020017f416761696e737400000000000000000000000000000000000000000000000000815250613f97565b86614302565b613ea0565b5b9392505050565b6000808351855114915081156135c757600090505b84518110156135c657838181518110151561355b57fe5b9060200190602002015173ffffffffffffffffffffffffffffffffffffffff16858281518110151561358957fe5b9060200190602002015173ffffffffffffffffffffffffffffffffffffffff161415156135b957600091506135c6565b8080600101915050613544565b5b6135d18284613ea0565b509392505050565b60008083518551149150811561364557600090505b845181101561364457838181518110151561360557fe5b90602001906020020151858281518110151561361d57fe5b906020019060200201511415156136375760009150613644565b80806001019150506135ee565b5b61364f8284613ea0565b509392505050565b60008060008451865114915081156136cc57600090505b85518110156136cb57848181518110151561368557fe5b906020019060200201516000191686828151811015156136a157fe5b906020019060200201516000191614156136be57600191506136cb565b808060010191505061366e565b5b6136d7821585613ea0565b50509392505050565b6000828414905080156136fc576136f78183613ea0565b61378d565b61378c81613787613742876040805190810160405280600681526020017f54657374656400000000000000000000000000000000000000000000000000008152506142d2565b613781876040805190810160405280600781526020017f416761696e7374000000000000000000000000000000000000000000000000008152506142d2565b86614302565b613ea0565b5b9392505050565b6000808314905080156137b0576137ab8183613ea0565b613802565b613801816137fc6137f6866040805190810160405280600681526020017f5465737465640000000000000000000000000000000000000000000000000000815250613f97565b85613fc7565b613ea0565b5b92915050565b60008060008451865114915081156138a157600090505b85518110156138a057848181518110151561383657fe5b9060200190602002015173ffffffffffffffffffffffffffffffffffffffff16868281518110151561386457fe5b9060200190602002015173ffffffffffffffffffffffffffffffffffffffff16141561389357600191506138a0565b808060010191505061381f565b5b6138ac821585613ea0565b50509392505050565b600082841115905080156138d2576138cd8183613ea0565b613963565b6139628161395d613918876040805190810160405280600681526020017f54657374656400000000000000000000000000000000000000000000000000008152506142d2565b613957876040805190810160405280600781526020017f416761696e7374000000000000000000000000000000000000000000000000008152506142d2565b86614302565b613ea0565b5b9392505050565b600082841090508015613986576139818183613ea0565b613a17565b613a1681613a116139cc876040805190810160405280600681526020017f54657374656400000000000000000000000000000000000000000000000000008152506142d2565b613a0b876040805190810160405280600781526020017f416761696e7374000000000000000000000000000000000000000000000000008152506142d2565b86614302565b613ea0565b5b9392505050565b60008273ffffffffffffffffffffffffffffffffffffffff168473ffffffffffffffffffffffffffffffffffffffff1614159050613a5c8183613ea0565b9392505050565b6000808373ffffffffffffffffffffffffffffffffffffffff1631149050613a8b8183613ea0565b92915050565b60008273ffffffffffffffffffffffffffffffffffffffff168473ffffffffffffffffffffffffffffffffffffffff16149050613ace8183613ea0565b9392505050565b60008060010260001916836000191614159050613af28183613ea0565b92915050565b600082159050613b088183613ea0565b92915050565b6000613b1a84846147d2565b90508015613b3157613b2c8183613ea0565b613bc2565b613bc181613bbc613b77876040805190810160405280600681526020017f546573746564000000000000000000000000000000000000000000000000000081525061492f565b613bb6876040805190810160405280600781526020017f416761696e73740000000000000000000000000000000000000000000000000081525061492f565b86614302565b613ea0565b5b9392505050565b600082600019168460001916149050613be28183613ea0565b9392505050565b6000808373ffffffffffffffffffffffffffffffffffffffff163114159050613c128183613ea0565b92915050565b60008073ffffffffffffffffffffffffffffffffffffffff168373ffffffffffffffffffffffffffffffffffffffff1614159050613c568183613ea0565b92915050565b600082841490508015613c7857613c738183613ea0565b613d09565b613d0881613d03613cbe876040805190810160405280600681526020017f5465737465640000000000000000000000000000000000000000000000000000815250613f97565b613cfd876040805190810160405280600781526020017f416761696e737400000000000000000000000000000000000000000000000000815250613f97565b86614302565b613ea0565b5b9392505050565b60008084519050845181141515613d4057613d3b826020604051908101604052806000815250613ea0565b613dd1565b613dd082613dcb613d86846040805190810160405280600681526020017f54657374656400000000000000000000000000000000000000000000000000008152506142d2565b613dc5886040805190810160405280600781526020017f416761696e7374000000000000000000000000000000000000000000000000008152506142d2565b87614302565b613ea0565b5b509392505050565b6000808451905083811415613e0757613e02826020604051908101604052806000815250613ea0565b613e98565b613e9782613e92613e4d846040805190810160405280600681526020017f54657374656400000000000000000000000000000000000000000000000000008152506142d2565b613e8c886040805190810160405280600781526020017f416761696e7374000000000000000000000000000000000000000000000000008152506142d2565b87614302565b613ea0565b5b509392505050565b8115613ef257600115157fd204e27263771793b3472e4c07118500eb1ab892c2b2f0a4b90b33c33d4df42f604051808060200182810382526000815260200160200191505060405180910390a2613f93565b600015157fd204e27263771793b3472e4c07118500eb1ab892c2b2f0a4b90b33c33d4df42f826040518080602001828103825283818151815260200191508051906020019080838360005b83811015613f58578082015181840152602081019050613f3d565b50505050905090810190601f168015613f855780820380516001836020036101000a031916815260200191505b509250505060405180910390a25b5050565b613f9f61559d565b613fa761559d565b613fb284600a614bd5565b9050613fbe818461492f565b91505092915050565b613fcf61559d565b613fd76155b1565b613fdf6155b1565b600080613fea6155b1565b600080899650889550855194508651935060038486010160405180591061400e5750595b9080825280601f01601f19166020018201604052509250600091505b848210156140dc57858281518110151561404057fe5b9060200101517f010000000000000000000000000000000000000000000000000000000000000090047f010000000000000000000000000000000000000000000000000000000000000002838280600101935081518110151561409f57fe5b9060200101907effffffffffffffffffffffffffffffffffffffffffffffffffffffffffffff1916908160001a905350818060010192505061402a565b7f2000000000000000000000000000000000000000000000000000000000000000838280600101935081518110151561411157fe5b9060200101907effffffffffffffffffffffffffffffffffffffffffffffffffffffffffffff1916908160001a9053507f2800000000000000000000000000000000000000000000000000000000000000838280600101935081518110151561417657fe5b9060200101907effffffffffffffffffffffffffffffffffffffffffffffffffffffffffffff1916908160001a905350600091505b8382101561425d5786828151811015156141c157fe5b9060200101517f010000000000000000000000000000000000000000000000000000000000000090047f010000000000000000000000000000000000000000000000000000000000000002838280600101935081518110151561422057fe5b9060200101907effffffffffffffffffffffffffffffffffffffffffffffffffffffffffffff1916908160001a90535081806001019250506141ab565b7f2900000000000000000000000000000000000000000000000000000000000000838280600101935081518110151561429257fe5b9060200101907effffffffffffffffffffffffffffffffffffffffffffffffffffffffffffff1916908160001a9053508297505050505050505092915050565b6142da61559d565b6142e261559d565b6142ed84600a614e9a565b90506142f9818461492f565b91505092915050565b61430a61559d565b6143126155b1565b61431a6155b1565b6143226155b1565b600080600061432f6155b1565b6000808c98508b97508a9650865195508851945087519350600584868801010160405180591061435c5750595b9080825280601f01601f19166020018201604052509250600091505b8582101561442a57868281518110151561438e57fe5b9060200101517f010000000000000000000000000000000000000000000000000000000000000090047f01000000000000000000000000000000000000000000000000000000000000000283828060010193508151811015156143ed57fe5b9060200101907effffffffffffffffffffffffffffffffffffffffffffffffffffffffffffff1916908160001a9053508180600101925050614378565b7f2000000000000000000000000000000000000000000000000000000000000000838280600101935081518110151561445f57fe5b9060200101907effffffffffffffffffffffffffffffffffffffffffffffffffffffffffffff1916908160001a9053507f280000000000000000000000000000000000000000000000000000000000000083828060010193508151811015156144c457fe5b9060200101907effffffffffffffffffffffffffffffffffffffffffffffffffffffffffffff1916908160001a905350600091505b848210156145ab57888281518110151561450f57fe5b9060200101517f010000000000000000000000000000000000000000000000000000000000000090047f010000000000000000000000000000000000000000000000000000000000000002838280600101935081518110151561456e57fe5b9060200101907effffffffffffffffffffffffffffffffffffffffffffffffffffffffffffff1916908160001a90535081806001019250506144f9565b7f2c0000000000000000000000000000000000000000000000000000000000000083828060010193508151811015156145e057fe5b9060200101907effffffffffffffffffffffffffffffffffffffffffffffffffffffffffffff1916908160001a9053507f2000000000000000000000000000000000000000000000000000000000000000838280600101935081518110151561464557fe5b9060200101907effffffffffffffffffffffffffffffffffffffffffffffffffffffffffffff1916908160001a905350600091505b8382101561472c57878281518110151561469057fe5b9060200101517f010000000000000000000000000000000000000000000000000000000000000090047f01000000000000000000000000000000000000000000000000000000000000000283828060010193508151811015156146ef57fe5b9060200101907effffffffffffffffffffffffffffffffffffffffffffffffffffffffffffff1916908160001a905350818060010192505061467a565b7f2900000000000000000000000000000000000000000000000000000000000000838280600101935081518110151561476157fe5b9060200101907effffffffffffffffffffffffffffffffffffffffffffffffffffffffffffff1916908160001a9053508299505050505050505050509392505050565b6147ac61559d565b6147b461559d565b6147bd846150a2565b90506147c9818461492f565b91505092915050565b60006147dc6155b1565b6147e46155b1565b6000859250849150815183511415156148005760009350614926565b600090505b825181101561492157818181518110151561481c57fe5b9060200101517f010000000000000000000000000000000000000000000000000000000000000090047f0100000000000000000000000000000000000000000000000000000000000000027effffffffffffffffffffffffffffffffffffffffffffffffffffffffffffff1916838281518110151561489757fe5b9060200101517f010000000000000000000000000000000000000000000000000000000000000090047f0100000000000000000000000000000000000000000000000000000000000000027effffffffffffffffffffffffffffffffffffffffffffffffffffffffffffff19161415156149145760009350614926565b8080600101915050614805565b600193505b50505092915050565b61493761559d565b61493f6155b1565b6149476155b1565b6000806149526155b1565b60008089965088955086519450855193506002848601016040518059106149765750595b9080825280601f01601f19166020018201604052509250600091505b83821015614a445785828151811015156149a857fe5b9060200101517f010000000000000000000000000000000000000000000000000000000000000090047f0100000000000000000000000000000000000000000000000000000000000000028382806001019350815181101515614a0757fe5b9060200101907effffffffffffffffffffffffffffffffffffffffffffffffffffffffffffff1916908160001a9053508180600101925050614992565b7f3a000000000000000000000000000000000000000000000000000000000000008382806001019350815181101515614a7957fe5b9060200101907effffffffffffffffffffffffffffffffffffffffffffffffffffffffffffff1916908160001a9053507f20000000000000000000000000000000000000000000000000000000000000008382806001019350815181101515614ade57fe5b9060200101907effffffffffffffffffffffffffffffffffffffffffffffffffffffffffffff1916908160001a905350600091505b84821015614bc5578682815181101515614b2957fe5b9060200101517f010000000000000000000000000000000000000000000000000000000000000090047f0100000000000000000000000000000000000000000000000000000000000000028382806001019350815181101515614b8857fe5b9060200101907effffffffffffffffffffffffffffffffffffffffffffffffffffffffffffff1916908160001a9053508180600101925050614b13565b8297505050505050505092915050565b614bdd61559d565b614be56155b1565b600080600080614bf36155b1565b6000891480614c05575060028860ff16105b80614c13575060108860ff16115b15614c55576040805190810160405280600181526020017f30000000000000000000000000000000000000000000000000000000000000008152509650614e8e565b610100604051805910614c655750595b9080825280601f01601f19166020018201604052509550600093506000891215614c9457886000039850600193505b5b6000891315614d0f57614cb58860ff168a811515614caf57fe5b07615476565b8686806001019750815181101515614cc957fe5b9060200101907effffffffffffffffffffffffffffffffffffffffffffffffffffffffffffff1916908160001a9053508760ff1689811515614d0757fe5b059850614c95565b849250600091508315614db25782806001019350506001915082604051805910614d365750595b9080825280601f01601f191660200182016040525090507f2d00000000000000000000000000000000000000000000000000000000000000816000815181101515614d7d57fe5b9060200101907effffffffffffffffffffffffffffffffffffffffffffffffffffffffffffff1916908160001a905350614dd8565b82604051805910614dc05750595b9080825280601f01601f191660200182016040525090505b5b82821015614e8a5785600183850303815181101515614df457fe5b9060200101517f010000000000000000000000000000000000000000000000000000000000000090047f0100000000000000000000000000000000000000000000000000000000000000028183815181101515614e4d57fe5b9060200101907effffffffffffffffffffffffffffffffffffffffffffffffffffffffffffff1916908160001a9053508180600101925050614dd9565b8096505b50505050505092915050565b614ea261559d565b614eaa6155b1565b6000614eb46155b1565b600080871480614ec7575060028660ff16105b80614ed5575060108660ff16115b15614f17576040805190810160405280600181526020017f30000000000000000000000000000000000000000000000000000000000000008152509450615098565b610100604051805910614f275750595b9080825280601f01601f191660200182016040525093505b6000871115614fb957614f5f8660ff1688811515614f5957fe5b06615476565b8484806001019550815181101515614f7357fe5b9060200101907effffffffffffffffffffffffffffffffffffffffffffffffffffffffffffff1916908160001a9053508560ff1687811515614fb157fe5b049650614f3f565b82604051805910614fc75750595b9080825280601f01601f19166020018201604052509150600090505b828110156150945783600182850303815181101515614ffe57fe5b9060200101517f010000000000000000000000000000000000000000000000000000000000000090047f010000000000000000000000000000000000000000000000000000000000000002828281518110151561505757fe5b9060200101907effffffffffffffffffffffffffffffffffffffffffffffffffffffffffffff1916908160001a9053508080600101915050614fe3565b8194505b5050505092915050565b6150aa61559d565b6150b26155b1565b82156152665760046040518059106150c75750595b9080825280601f01601f191660200182016040525090507f740000000000000000000000000000000000000000000000000000000000000081600081518110151561510e57fe5b9060200101907effffffffffffffffffffffffffffffffffffffffffffffffffffffffffffff1916908160001a9053507f720000000000000000000000000000000000000000000000000000000000000081600181518110151561516e57fe5b9060200101907effffffffffffffffffffffffffffffffffffffffffffffffffffffffffffff1916908160001a9053507f75000000000000000000000000000000000000000000000000000000000000008160028151811015156151ce57fe5b9060200101907effffffffffffffffffffffffffffffffffffffffffffffffffffffffffffff1916908160001a9053507f650000000000000000000000000000000000000000000000000000000000000081600381518110151561522e57fe5b9060200101907effffffffffffffffffffffffffffffffffffffffffffffffffffffffffffff1916908160001a905350809150615470565b60056040518059106152755750595b9080825280601f01601f191660200182016040525090507f66000000000000000000000000000000000000000000000000000000000000008160008151811015156152bc57fe5b9060200101907effffffffffffffffffffffffffffffffffffffffffffffffffffffffffffff1916908160001a9053507f610000000000000000000000000000000000000000000000000000000000000081600181518110151561531c57fe5b9060200101907effffffffffffffffffffffffffffffffffffffffffffffffffffffffffffff1916908160001a9053507f6c0000000000000000000000000000000000000000000000000000000000000081600281518110151561537c57fe5b9060200101907effffffffffffffffffffffffffffffffffffffffffffffffffffffffffffff1916908160001a9053507f73000000000000000000000000000000000000000000000000000000000000008160038151811015156153dc57fe5b9060200101907effffffffffffffffffffffffffffffffffffffffffffffffffffffffffffff1916908160001a9053507f650000000000000000000000000000000000000000000000000000000000000081600481518110151561543c57fe5b9060200101907effffffffffffffffffffffffffffffffffffffffffffffffffffffffffffff1916908160001a9053508091505b50919050565b6000600a8260ff1610156154f3577f30000000000000000000000000000000000000000000000000000000000000007f0100000000000000000000000000000000000000000000000000000000000000900482017f0100000000000000000000000000000000000000000000000000000000000000029050615598565b60108260ff161015615571577f61000000000000000000000000000000000000000000000000000000000000007f01000000000000000000000000000000000000000000000000000000000000009004600a8303017f0100000000000000000000000000000000000000000000000000000000000000029050615598565b60007f01000000000000000000000000000000000000000000000000000000000000000290505b919050565b602060405190810160405280600081525090565b6020604051908101604052806000815250905600a165627a7a72305820ac173d33798e2933abf437d2ca9185330ef0c7bad39f216dbe43b5f143d5365b0029",
  "source": "// This file taken from here: https://raw.githubusercontent.com/smartcontractproduction/sol-unit/master/contracts/src/Assertions.sol\r\n// It was renamed to Assert.sol by Tim Coulter.\r\n\r\npragma solidity ^0.4.6;\r\n\r\n/*\r\n    File: Assertions.slb\r\n\r\n    Author: Andreas Olofsson (androlo1980@gmail.com)\r\n\r\n    Library: Assertions\r\n\r\n    Assertions for unit testing contracts. Tests are run with the\r\n    <solUnit at https://github.com/smartcontractproduction/sol-unit>\r\n    unit-testing framework.\r\n\r\n    (start code)\r\n    contract ModAdder {\r\n\r\n        function addMod(uint a, uint b, uint modulus) constant returns (uint sum) {\r\n            if (modulus == 0)\r\n                throw;\r\n            return addmod(a, b, modulus);\r\n        }\r\n\r\n    }\r\n\r\n    contract SomeTest {\r\n        using Assertions for uint;\r\n\r\n        function testAdd() {\r\n            var adder = new ModAdder();\r\n            adder.addMod(50, 66, 30).equal(26, \"addition returned the wrong sum\");\r\n        }\r\n    }\r\n    (end)\r\n\r\n    It is also possible to extend <Test>, to have all bindings (using) properly set up.\r\n\r\n    (start code)\r\n\r\n    contract SomeTest is Test {\r\n\r\n        function testAdd() {\r\n            var adder = new ModAdder();\r\n            adder.addMod(50, 66, 30).equal(26, \"addition returned the wrong sum\");\r\n        }\r\n    }\r\n    (end)\r\n*/\r\nlibrary Assert {\r\n\r\n    // Constant: ADDRESS_NULL\r\n    // The null address: 0\r\n    address constant ADDRESS_NULL = 0;\r\n    // Constant: BYTES32_NULL\r\n    // The null bytes32: 0\r\n    bytes32 constant BYTES32_NULL = 0;\r\n    // Constant: STRING_NULL\r\n    // The null string: \"\"\r\n    string constant STRING_NULL = \"\";\r\n\r\n    uint8 constant ZERO = uint8(byte('0'));\r\n    uint8 constant A = uint8(byte('a'));\r\n\r\n    byte constant MINUS = byte('-');\r\n    byte constant SPACE = byte(' ');\r\n\r\n    /*\r\n        Event: TestEvent\r\n\r\n        Fired when an assertion is made.\r\n\r\n        Params:\r\n            result (bool) - Whether or not the assertion holds.\r\n            message (string) - A message to display if the assertion does not hold.\r\n    */\r\n    event TestEvent(bool indexed result, string message);\r\n\r\n    // ************************************** general **************************************\r\n\r\n    /*\r\n        Function: fail()\r\n\r\n        Mark the test as failed.\r\n\r\n        Params:\r\n            message (string) - A message associated with the failure.\r\n\r\n        Returns:\r\n            result (bool) - false.\r\n    */\r\n    function fail(string message) constant returns (bool result) {\r\n        _report(false, message);\r\n        return false;\r\n    }\r\n\r\n    // ************************************** strings **************************************\r\n\r\n    /*\r\n        Function: equal(string)\r\n\r\n        Assert that two strings are equal.\r\n\r\n        : _stringsEqual(A, B) == true\r\n\r\n        Params:\r\n            A (string) - The first string.\r\n            B (string) - The second string.\r\n            message (string) - A message that is sent if the assertion fails.\r\n\r\n        Returns:\r\n            result (bool) - The result.\r\n    */\r\n    function equal(string A, string B, string message) constant returns (bool result) {\r\n        result = _stringsEqual(A, B);\r\n        if (result)\r\n            _report(result, message);\r\n        else\r\n            _report(result, _appendTagged(_tag(A, \"Tested\"), _tag(B, \"Against\"), message));\r\n    }\r\n\r\n    /*\r\n        Function: notEqual(string)\r\n\r\n        Assert that two strings are not equal.\r\n\r\n        : _stringsEqual(A, B) == false\r\n\r\n        Params:\r\n            A (string) - The first string.\r\n            B (string) - The second string.\r\n            message (string) - A message that is sent if the assertion fails.\r\n\r\n        Returns:\r\n            result (bool) - The result.\r\n    */\r\n    function notEqual(string A, string B, string message) constant returns (bool result) {\r\n        result = !_stringsEqual(A, B);\r\n        if (result)\r\n            _report(result, message);\r\n        else\r\n            _report(result, _appendTagged(_tag(A, \"Tested\"), _tag(B, \"Against\"), message));\r\n    }\r\n\r\n    /*\r\n        Function: isEmpty(string)\r\n\r\n        Assert that a string is empty.\r\n\r\n        : _stringsEqual(str, STRING_NULL) == true\r\n\r\n        Params:\r\n            str (string) - The string.\r\n            message (string) - A message that is sent if the assertion fails.\r\n\r\n        Returns:\r\n            result (bool) - The result.\r\n    */\r\n    function isEmpty(string str, string message) constant returns (bool result) {\r\n        result = _stringsEqual(str, STRING_NULL);\r\n        if (result)\r\n            _report(result, message);\r\n        else\r\n            _report(result, _appendTagged(_tag(str, \"Tested\"), message));\r\n    }\r\n\r\n    /*\r\n        Function: isNotEmpty(string)\r\n\r\n        Assert that a string is not empty.\r\n\r\n        : _stringsEqual(str, STRING_NULL) == false\r\n\r\n        Params:\r\n            str (string) - The string.\r\n            message (string) - A message that is sent if the assertion fails.\r\n\r\n        Returns:\r\n            result (bool) - The result.\r\n    */\r\n    function isNotEmpty(string str, string message) constant returns (bool result) {\r\n        result = !_stringsEqual(str, STRING_NULL);\r\n        if (result)\r\n            _report(result, message);\r\n        else\r\n            _report(result, _appendTagged(_tag(str, \"Tested\"), message));\r\n    }\r\n\r\n    // ************************************** bytes32 **************************************\r\n\r\n    /*\r\n        Function: equal(bytes32)\r\n\r\n        Assert that two 'bytes32' are equal.\r\n\r\n        : A == B\r\n\r\n        Params:\r\n            A (bytes32) - The first 'bytes32'.\r\n            B (bytes32) - The second 'bytes32'.\r\n            message (string) - A message that is sent if the assertion fails.\r\n\r\n        Returns:\r\n            result (bool) - The result.\r\n    */\r\n    function equal(bytes32 A, bytes32 B, string message) constant returns (bool result) {\r\n        result = (A == B);\r\n        _report(result, message);\r\n    }\r\n\r\n    /*\r\n        Function: notEqual(bytes32)\r\n\r\n        Assert that two 'bytes32' are not equal.\r\n\r\n        : A != B\r\n\r\n        Params:\r\n            A (bytes32) - The first 'bytes32'.\r\n            B (bytes32) - The second 'bytes32'.\r\n            message (string) - A message that is sent if the assertion fails.\r\n\r\n        Returns:\r\n            result (bool) - The result.\r\n    */\r\n    function notEqual(bytes32 A, bytes32 B, string message) constant returns (bool result) {\r\n        result = (A != B);\r\n        _report(result, message);\r\n    }\r\n\r\n    /*\r\n        Function: isZero(bytes32)\r\n\r\n        Assert that a 'bytes32' is zero.\r\n\r\n        : bts == BYTES32_NULL\r\n\r\n        Params:\r\n            bts (bytes32) - The 'bytes32'.\r\n            message (string) - A message that is sent if the assertion fails.\r\n\r\n        Returns:\r\n            result (bool) - The result.\r\n    */\r\n    function isZero(bytes32 bts, string message) constant returns (bool result) {\r\n        result = (bts == BYTES32_NULL);\r\n        _report(result, message);\r\n    }\r\n\r\n    /*\r\n        Function: isNotZero(bytes32)\r\n\r\n        Assert that a 'bytes32' is not zero.\r\n\r\n        : bts != BYTES32_NULL\r\n\r\n        Params:\r\n            bts (bytes32) - The 'bytes32'.\r\n            message (string) - A message that is sent if the assertion fails.\r\n\r\n        Returns:\r\n            result (bool) - The result.\r\n    */\r\n    function isNotZero(bytes32 bts, string message) constant returns (bool result) {\r\n        result = (bts != BYTES32_NULL);\r\n        _report(result, message);\r\n    }\r\n\r\n    // ************************************** address **************************************\r\n\r\n    /*\r\n        Function: equal(address)\r\n\r\n        Assert that two addresses are equal.\r\n\r\n        : A == B\r\n\r\n        Params:\r\n            A (address) - The first address.\r\n            B (address) - The second address.\r\n            message (string) - A message that is sent if the assertion fails.\r\n\r\n        Returns:\r\n            result (bool) - The result.\r\n    */\r\n    function equal(address A, address B, string message) constant returns (bool result) {\r\n        result = (A == B);\r\n        _report(result, message);\r\n    }\r\n    /*\r\n        Function: notEqual(address)\r\n\r\n        Assert that two addresses are not equal.\r\n\r\n        : A != B\r\n\r\n        Params:\r\n            A (address) - The first address.\r\n            B (address) - The second address.\r\n            message (string) - A message that is sent if the assertion fails.\r\n\r\n        Returns:\r\n            result (bool) - The result.\r\n    */\r\n    function notEqual(address A, address B, string message) constant returns (bool result) {\r\n        result = (A != B);\r\n         _report(result, message);\r\n    }\r\n\r\n    /*\r\n        Function: isZero(address)\r\n\r\n        Assert that an address is zero.\r\n\r\n        : addr == ADDRESS_NULL\r\n\r\n        Params:\r\n            addr (address) - The address.\r\n            message (string) - A message that is sent if the assertion fails.\r\n\r\n        Returns:\r\n            result (bool) - The result.\r\n    */\r\n    function isZero(address addr, string message) constant returns (bool result) {\r\n        result = (addr == ADDRESS_NULL);\r\n        _report(result, message);\r\n    }\r\n\r\n    /*\r\n        Function: isNotZero(address)\r\n\r\n        Assert that an address is not zero.\r\n\r\n        : addr != ADDRESS_NULL\r\n\r\n        Params:\r\n            addr (address) - The address.\r\n            message (string) - A message that is sent if the assertion fails.\r\n\r\n        Returns:\r\n            result (bool) - The result.\r\n    */\r\n    function isNotZero(address addr, string message) constant returns (bool result) {\r\n        result = (addr != ADDRESS_NULL);\r\n        _report(result, message);\r\n    }\r\n\r\n    // ************************************** bool **************************************\r\n\r\n    /*\r\n        Function: isTrue\r\n\r\n        Assert that a boolean is 'true'.\r\n\r\n        : b == true\r\n\r\n        Params:\r\n            b (bool) - The boolean.\r\n            message (string) - A message that is sent if the assertion fails.\r\n\r\n        Returns:\r\n            result (bool) - The result.\r\n    */\r\n    function isTrue(bool b, string message) constant returns (bool result) {\r\n        result = b;\r\n        _report(result, message);\r\n    }\r\n\r\n    /*\r\n        Function: isFalse\r\n\r\n        Assert that a boolean is 'false'.\r\n\r\n        : b == false\r\n\r\n        Params:\r\n            b (bool) - The boolean.\r\n            message (string) - A message that is sent if the assertion fails.\r\n\r\n        Returns:\r\n            result (bool) - The result.\r\n    */\r\n    function isFalse(bool b, string message) constant returns (bool result) {\r\n        result = !b;\r\n        _report(result, message);\r\n    }\r\n\r\n    /*\r\n        Function: equal(bool)\r\n\r\n        Assert that two booleans are equal.\r\n\r\n        : A == B\r\n\r\n        Params:\r\n            A (bool) - The first boolean.\r\n            B (bool) - The second boolean.\r\n            message (string) - A message that is sent if the assertion fails.\r\n\r\n        Returns:\r\n            result (bool) - The result.\r\n    */\r\n    function equal(bool A, bool B, string message) constant returns (bool result) {\r\n        result = (A == B);\r\n        if (result)\r\n            _report(result, message);\r\n        else\r\n            _report(result, _appendTagged(_tag(A, \"Tested\"), _tag(B, \"Against\"), message));\r\n    }\r\n\r\n    /*\r\n        Function: notEqual(bool)\r\n\r\n        Assert that two booleans are not equal.\r\n\r\n        : A != B\r\n\r\n        Params:\r\n            A (bool) - The first boolean.\r\n            B (bool) - The second boolean.\r\n            message (string) - A message that is sent if the assertion fails.\r\n\r\n        Returns:\r\n            result (bool) - The result.\r\n    */\r\n    function notEqual(bool A, bool B, string message) constant returns (bool result) {\r\n        result = (A != B);\r\n        if (result)\r\n            _report(result, message);\r\n        else\r\n            _report(result, _appendTagged(_tag(A, \"Tested\"), _tag(B, \"Against\"), message));\r\n    }\r\n\r\n    // ************************************** uint **************************************\r\n\r\n    /*\r\n        Function: equal(uint)\r\n\r\n        Assert that two (256 bit) unsigned integers are equal.\r\n\r\n        : A == B\r\n\r\n        Params:\r\n            A (uint) - The first uint.\r\n            B (uint) - The second uint.\r\n            message (string) - A message that is sent if the assertion fails.\r\n\r\n        Returns:\r\n            result (bool) - The result.\r\n    */\r\n    function equal(uint A, uint B, string message) constant returns (bool result) {\r\n        result = (A == B);\r\n        if (result)\r\n            _report(result, message);\r\n        else\r\n            _report(result, _appendTagged(_tag(A, \"Tested\"), _tag(B, \"Against\"), message));\r\n    }\r\n\r\n    /*\r\n        Function: notEqual(uint)\r\n\r\n        Assert that two (256 bit) unsigned integers are not equal.\r\n\r\n        : A != B\r\n\r\n        Params:\r\n            A (uint) - The first uint.\r\n            B (uint) - The second uint.\r\n            message (string) - A message that is sent if the assertion fails.\r\n\r\n        Returns:\r\n            result (bool) - The result.\r\n    */\r\n    function notEqual(uint A, uint B, string message) constant returns (bool result) {\r\n        result = (A != B);\r\n        if (result)\r\n            _report(result, message);\r\n        else\r\n            _report(result, _appendTagged(_tag(A, \"Tested\"), _tag(B, \"Against\"), message));\r\n    }\r\n\r\n    /*\r\n        Function: isAbove(uint)\r\n\r\n        Assert that the uint 'A' is greater than the uint 'B'.\r\n\r\n        : A > B\r\n\r\n        Params:\r\n            A (uint) - The first uint.\r\n            B (uint) - The second uint.\r\n            message (string) - A message that is sent if the assertion fails.\r\n\r\n        Returns:\r\n            result (bool) - The result.\r\n    */\r\n    function isAbove(uint A, uint B, string message) constant returns (bool result) {\r\n        result = (A > B);\r\n        if (result)\r\n            _report(result, message);\r\n        else\r\n            _report(result, _appendTagged(_tag(A, \"Tested\"), _tag(B, \"Against\"), message));\r\n    }\r\n\r\n    /*\r\n        Function: isAtLeast(uint)\r\n\r\n        Assert that the uint 'A' is greater than or equal to the uint 'B'.\r\n\r\n        : A >= B\r\n\r\n        Params:\r\n            A (uint) - The first uint.\r\n            B (uint) - The second uint.\r\n            message (string) - A message that is sent if the assertion fails.\r\n\r\n        Returns:\r\n            result (bool) - The result.\r\n    */\r\n    function isAtLeast(uint A, uint B, string message) constant returns (bool result) {\r\n        result = (A >= B);\r\n        if (result)\r\n            _report(result, message);\r\n        else\r\n            _report(result, _appendTagged(_tag(A, \"Tested\"), _tag(B, \"Against\"), message));\r\n    }\r\n\r\n    /*\r\n        Function: isBelow(uint)\r\n\r\n        Assert that the uint 'A' is lesser than the uint 'B'.\r\n\r\n        : A < B\r\n\r\n        Params:\r\n            A (uint) - The first uint.\r\n            B (uint) - The second uint.\r\n            message (string) - A message that is sent if the assertion fails.\r\n\r\n        Returns:\r\n            result (bool) - The result.\r\n    */\r\n    function isBelow(uint A, uint B, string message) constant returns (bool result) {\r\n        result = (A < B);\r\n        if (result)\r\n            _report(result, message);\r\n        else\r\n            _report(result, _appendTagged(_tag(A, \"Tested\"), _tag(B, \"Against\"), message));\r\n    }\r\n\r\n    /*\r\n        Function: isAtMost(uint)\r\n\r\n        Assert that the uint 'A' is lesser than or equal to the uint 'B'.\r\n\r\n        : A <= B\r\n\r\n        Params:\r\n            A (uint) - The first uint.\r\n            B (uint) - The second uint.\r\n            message (string) - A message that is sent if the assertion fails.\r\n\r\n        Returns:\r\n            result (bool) - The result.\r\n    */\r\n    function isAtMost(uint A, uint B, string message) constant returns (bool result) {\r\n        result = (A <= B);\r\n        if (result)\r\n            _report(result, message);\r\n        else\r\n            _report(result, _appendTagged(_tag(A, \"Tested\"), _tag(B, \"Against\"), message));\r\n    }\r\n\r\n    /*\r\n        Function: isZero(uint)\r\n\r\n        Assert that a (256 bit) unsigned integer is 0.\r\n\r\n        : number == 0\r\n\r\n        Params:\r\n            number (uint) - The uint.\r\n            message (string) - A message that is sent if the assertion fails.\r\n\r\n        Returns:\r\n            result (bool) - The result.\r\n    */\r\n    function isZero(uint number, string message) constant returns (bool result) {\r\n        result = (number == 0);\r\n        if (result)\r\n            _report(result, message);\r\n        else\r\n            _report(result, _appendTagged(_tag(number, \"Tested\"), message));\r\n    }\r\n\r\n    /*\r\n        Function: isNotZero(uint)\r\n\r\n        Assert that a (256 bit) unsigned integer is not 0.\r\n\r\n        : number != 0\r\n\r\n        Params:\r\n            number (uint) - The uint.\r\n            message (string) - A message that is sent if the assertion fails.\r\n\r\n        Returns:\r\n            result (bool) - The result.\r\n    */\r\n    function isNotZero(uint number, string message) constant returns (bool result) {\r\n        result = (number != 0);\r\n        if (result)\r\n            _report(result, message);\r\n        else\r\n            _report(result, _appendTagged(_tag(number, \"Tested\"), message));\r\n    }\r\n\r\n    // ************************************** int **************************************\r\n\r\n    /*\r\n        Function: equal(int)\r\n\r\n        Assert that two (256 bit) signed integers are equal.\r\n\r\n        : A == B\r\n\r\n        Params:\r\n            A (int) - The first int.\r\n            B (int) - The second int.\r\n            message (string) - A message that is sent if the assertion fails.\r\n\r\n        Returns:\r\n            result (bool) - The result.\r\n    */\r\n    function equal(int A, int B, string message) constant returns (bool result) {\r\n        result = (A == B);\r\n        if (result)\r\n            _report(result, message);\r\n        else\r\n            _report(result, _appendTagged(_tag(A, \"Tested\"), _tag(B, \"Against\"), message));\r\n    }\r\n\r\n    /*\r\n        Function: notEqual(int)\r\n\r\n        Assert that two (256 bit) signed integers are not equal.\r\n\r\n        : A != B\r\n\r\n        Params:\r\n            A (int) - The first int.\r\n            B (int) - The second int.\r\n            message (string) - A message that is sent if the assertion fails.\r\n\r\n        Returns:\r\n            result (bool) - The result.\r\n    */\r\n    function notEqual(int A, int B, string message) constant returns (bool result) {\r\n        result = (A != B);\r\n        if (result)\r\n            _report(result, message);\r\n        else\r\n            _report(result, _appendTagged(_tag(A, \"Tested\"), _tag(B, \"Against\"), message));\r\n    }\r\n\r\n    /*\r\n        Function: isAbove(int)\r\n\r\n        Assert that the int 'A' is greater than the int 'B'.\r\n\r\n        : A > B\r\n\r\n        Params:\r\n            A (int) - The first int.\r\n            B (int) - The second int.\r\n            message (string) - A message that is sent if the assertion fails.\r\n\r\n        Returns:\r\n            result (bool) - The result.\r\n    */\r\n    function isAbove(int A, int B, string message) constant returns (bool result) {\r\n        result = (A > B);\r\n        if (result)\r\n            _report(result, message);\r\n        else\r\n            _report(result, _appendTagged(_tag(A, \"Tested\"), _tag(B, \"Against\"), message));\r\n    }\r\n\r\n    /*\r\n        Function: isAtLeast(int)\r\n\r\n        Assert that the int 'A' is greater than or equal to the int 'B'.\r\n\r\n        : A >= B\r\n\r\n        Params:\r\n            A (int) - The first int.\r\n            B (int) - The second int.\r\n            message (string) - A message that is sent if the assertion fails.\r\n\r\n        Returns:\r\n            result (bool) - The result.\r\n    */\r\n    function isAtLeast(int A, int B, string message) constant returns (bool result) {\r\n        result = (A >= B);\r\n        if (result)\r\n            _report(result, message);\r\n        else\r\n            _report(result, _appendTagged(_tag(A, \"Tested\"), _tag(B, \"Against\"), message));\r\n    }\r\n\r\n    /*\r\n        Function: isBelow(int)\r\n\r\n        Assert that the int 'A' is lesser than the int 'B'.\r\n\r\n        : A < B\r\n\r\n        Params:\r\n            A (int) - The first int.\r\n            B (int) - The second int.\r\n            message (string) - A message that is sent if the assertion fails.\r\n\r\n        Returns:\r\n            result (bool) - The result.\r\n    */\r\n    function isBelow(int A, int B, string message) constant returns (bool result) {\r\n        result = (A < B);\r\n        if (result)\r\n            _report(result, message);\r\n        else\r\n            _report(result, _appendTagged(_tag(A, \"Tested\"), _tag(B, \"Against\"), message));\r\n    }\r\n\r\n    /*\r\n        Function: isAtMost(int)\r\n\r\n        Assert that the int 'A' is lesser than or equal to the int 'B'.\r\n\r\n        : A <= B\r\n\r\n        Params:\r\n            A (int) - The first int.\r\n            B (int) - The second int.\r\n            message (string) - A message that is sent if the assertion fails.\r\n\r\n        Returns:\r\n            result (bool) - The result.\r\n    */\r\n    function isAtMost(int A, int B, string message) constant returns (bool result) {\r\n        result = (A <= B);\r\n        if (result)\r\n            _report(result, message);\r\n        else\r\n            _report(result, _appendTagged(_tag(A, \"Tested\"), _tag(B, \"Against\"), message));\r\n    }\r\n\r\n    /*\r\n        Function: isZero(int)\r\n\r\n        Assert that a (256 bit) signed integer is 0.\r\n\r\n        : number == 0\r\n\r\n        Params:\r\n            number (int) - The int.\r\n            message (string) - A message that is sent if the assertion fails.\r\n\r\n        Returns:\r\n            result (bool) - The result.\r\n    */\r\n    function isZero(int number, string message) constant returns (bool result) {\r\n        result = (number == 0);\r\n        if (result)\r\n            _report(result, message);\r\n        else\r\n            _report(result, _appendTagged(_tag(number, \"Tested\"), message));\r\n    }\r\n\r\n    /*\r\n        Function: isNotZero(int)\r\n\r\n        Assert that a (256 bit) signed integer is not 0.\r\n\r\n        : number != 0\r\n\r\n        Params:\r\n            number (int) - The int.\r\n            message (string) - A message that is sent if the assertion fails.\r\n\r\n        Returns:\r\n            result (bool) - The result.\r\n    */\r\n    function isNotZero(int number, string message) constant returns (bool result) {\r\n        result = (number != 0);\r\n        if (result)\r\n            _report(result, message);\r\n        else\r\n            _report(result, _appendTagged(_tag(number, \"Tested\"), message));\r\n    }\r\n\r\n    // ************************************** uint[] **************************************\r\n\r\n    /*\r\n        Function: equal(uint[])\r\n\r\n        Assert that two 'uint[ ]' are equal.\r\n\r\n        : arrA.length == arrB.length\r\n\r\n        and, for all valid indices 'i'\r\n\r\n        : arrA[i] == arrB[i]\r\n\r\n        Params:\r\n            A (uint[]) - The first array.\r\n            B (uint[]) - The second array.\r\n            message (string) - A message that is sent if the assertion fails.\r\n\r\n        Returns:\r\n            result (bool) - The result.\r\n    */\r\n    function equal(uint[] arrA, uint[] arrB, string message) constant returns (bool result) {\r\n        result = arrA.length == arrB.length;\r\n        if (result) {\r\n            for (uint i = 0; i < arrA.length; i++) {\r\n                if (arrA[i] != arrB[i]) {\r\n                    result = false;\r\n                    break;\r\n                }\r\n            }\r\n        }\r\n        _report(result, message);\r\n    }\r\n\r\n    /*\r\n        Function: notEqual(uint[])\r\n\r\n        Assert that two 'uint[]' are not equal.\r\n\r\n        : arrA.length != arrB.length\r\n\r\n        or, for some valid index 'i'\r\n\r\n        : arrA[i] != arrB[i]\r\n\r\n        Params:\r\n            A (uint[]) - The first string.\r\n            B (uint[]) - The second string.\r\n            message (string) - A message that is sent if the assertion fails.\r\n\r\n        Returns:\r\n            result (bool) - The result.\r\n    */\r\n    function notEqual(uint[] arrA, uint[] arrB, string message) constant returns (bool result) {\r\n        var r = arrA.length == arrB.length;\r\n        if (r) {\r\n            for (uint i = 0; i < arrA.length; i++) {\r\n                if (arrA[i] == arrB[i]) {\r\n                    r = true;\r\n                    break;\r\n                }\r\n            }\r\n        }\r\n        _report(!r, message);\r\n    }\r\n\r\n    /*\r\n        Function: lengthEqual(uint[])\r\n\r\n        Assert that the length of a 'uint[]' is equal to a given value.\r\n\r\n        : arr.length == length\r\n\r\n        Params:\r\n            arr (uint[]) - The array.\r\n            length (uint) - The length.\r\n            message (string) - A message that is sent if the assertion fails.\r\n\r\n        Returns:\r\n            result (bool) - The result.\r\n    */\r\n    function lengthEqual(uint[] arr, uint length, string message) constant returns (bool result) {\r\n        uint arrLength = arr.length;\r\n        if (arrLength == length)\r\n            _report(result, \"\");\r\n        else\r\n            _report(result, _appendTagged(_tag(arrLength, \"Tested\"), _tag(length, \"Against\"), message));\r\n    }\r\n\r\n    /*\r\n        Function: lengthNotEqual(uint[])\r\n\r\n        Assert that the length of a 'uint[]' is not equal to a given value.\r\n\r\n        : arr.length != length\r\n\r\n        Params:\r\n            arr (uint[]) - The array.\r\n            length (uint) - The length.\r\n            message (string) - A message that is sent if the assertion fails.\r\n\r\n        Returns:\r\n            result (bool) - The result.\r\n    */\r\n    function lengthNotEqual(uint[] arr, uint length, string message) constant returns (bool result) {\r\n        uint arrLength = arr.length;\r\n        if (arrLength != arr.length)\r\n            _report(result, \"\");\r\n        else\r\n            _report(result, _appendTagged(_tag(arrLength, \"Tested\"), _tag(length, \"Against\"), message));\r\n    }\r\n\r\n    // ************************************** int[] **************************************\r\n\r\n    /*\r\n        Function: equal(int[])\r\n\r\n        Assert that two 'int[]' are equal.\r\n\r\n        : arrA.length == arrB.length\r\n\r\n        and, for all valid indices 'i'\r\n\r\n        : arrA[i] == arrB[i]\r\n\r\n        Params:\r\n            A (int[]) - The first array.\r\n            B (int[]) - The second array.\r\n            message (string) - A message that is sent if the assertion fails.\r\n\r\n        Returns:\r\n            result (bool) - The result.\r\n    */\r\n    function equal(int[] arrA, int[] arrB, string message) constant returns (bool result) {\r\n        result = arrA.length == arrB.length;\r\n        if (result) {\r\n            for (uint i = 0; i < arrA.length; i++) {\r\n                if (arrA[i] != arrB[i]) {\r\n                    result = false;\r\n                    break;\r\n                }\r\n            }\r\n        }\r\n        _report(result, message);\r\n    }\r\n\r\n    /*\r\n        Function: notEqual(int[])\r\n\r\n        Assert that two 'int[]' are not equal.\r\n\r\n        : arrA.length != arrB.length\r\n\r\n        or, for some valid index 'i'\r\n\r\n        : arrA[i] != arrB[i]\r\n\r\n        Params:\r\n            A (int[]) - The first string.\r\n            B (int[]) - The second string.\r\n            message (string) - A message that is sent if the assertion fails.\r\n\r\n        Returns:\r\n            result (bool) - The result.\r\n    */\r\n    function notEqual(int[] arrA, int[] arrB, string message) constant returns (bool result) {\r\n        var r = arrA.length == arrB.length;\r\n        if (r) {\r\n            for (uint i = 0; i < arrA.length; i++) {\r\n                if (arrA[i] == arrB[i]) {\r\n                    r = true;\r\n                    break;\r\n                }\r\n            }\r\n        }\r\n        _report(!r, message);\r\n    }\r\n\r\n    /*\r\n        Function: lengthEqual(int[])\r\n\r\n        Assert that the length of an 'int[]' is equal to a given value.\r\n\r\n        : arr.length == length\r\n\r\n        Params:\r\n            arr (int[]) - The array.\r\n            length (uint) - The length.\r\n            message (string) - A message that is sent if the assertion fails.\r\n\r\n        Returns:\r\n            result (bool) - The result.\r\n    */\r\n    function lengthEqual(int[] arr, uint length, string message) constant returns (bool result) {\r\n        uint arrLength = arr.length;\r\n        if (arrLength == length)\r\n            _report(result, \"\");\r\n        else\r\n            _report(result, _appendTagged(_tag(arrLength, \"Tested\"), _tag(length, \"Against\"), message));\r\n    }\r\n\r\n    /*\r\n        Function: lengthNotEqual(int[])\r\n\r\n        Assert that the length of an 'int[]' is not equal to a given value.\r\n\r\n        : arr.length != length\r\n\r\n        Params:\r\n            arr (int[]) - The array.\r\n            length (uint) - The length.\r\n            message (string) - A message that is sent if the assertion fails.\r\n\r\n        Returns:\r\n            result (bool) - The result.\r\n    */\r\n    function lengthNotEqual(int[] arr, uint length, string message) constant returns (bool result) {\r\n        uint arrLength = arr.length;\r\n        if (arrLength != arr.length)\r\n            _report(result, \"\");\r\n        else\r\n            _report(result, _appendTagged(_tag(arrLength, \"Tested\"), _tag(length, \"Against\"), message));\r\n    }\r\n\r\n    // ************************************** address[] **************************************\r\n\r\n    /*\r\n        Function: equal(address[])\r\n\r\n        Assert that two 'address[]' are equal.\r\n\r\n        : arrA.length == arrB.length\r\n\r\n        and, for all valid indices 'i'\r\n\r\n        : arrA[i] == arrB[i]\r\n\r\n        Params:\r\n            A (address[]) - The first array.\r\n            B (address[]) - The second array.\r\n            message (string) - A message that is sent if the assertion fails.\r\n\r\n        Returns:\r\n            result (bool) - The result.\r\n    */\r\n    function equal(address[] arrA, address[] arrB, string message) constant returns (bool result) {\r\n        result = arrA.length == arrB.length;\r\n        if (result) {\r\n            for (uint i = 0; i < arrA.length; i++) {\r\n                if (arrA[i] != arrB[i]) {\r\n                    result = false;\r\n                    break;\r\n                }\r\n            }\r\n        }\r\n        _report(result, message);\r\n    }\r\n\r\n    /*\r\n        Function: notEqual(address[])\r\n\r\n        Assert that two 'address[]' are not equal.\r\n\r\n        : arrA.length != arrB.length\r\n\r\n        or, for some valid index 'i'\r\n\r\n        : arrA[i] != arrB[i]\r\n\r\n        Params:\r\n            A (address[]) - The first string.\r\n            B (address[]) - The second string.\r\n            message (string) - A message that is sent if the assertion fails.\r\n\r\n        Returns:\r\n            result (bool) - The result.\r\n    */\r\n    function notEqual(address[] arrA, address[] arrB, string message) constant returns (bool result) {\r\n        var r = arrA.length == arrB.length;\r\n        if (r) {\r\n            for (uint i = 0; i < arrA.length; i++) {\r\n                if (arrA[i] == arrB[i]) {\r\n                    r = true;\r\n                    break;\r\n                }\r\n            }\r\n        }\r\n        _report(!r, message);\r\n    }\r\n\r\n    /*\r\n        Function: lengthEqual(address[])\r\n\r\n        Assert that the length of an 'address[]' is equal to a given value.\r\n\r\n        : arr.length == length\r\n\r\n        Params:\r\n            arr (address[]) - The array.\r\n            length (uint) - The length.\r\n            message (string) - A message that is sent if the assertion fails.\r\n\r\n        Returns:\r\n            result (bool) - The result.\r\n    */\r\n    function lengthEqual(address[] arr, uint length, string message) constant returns (bool result) {\r\n        uint arrLength = arr.length;\r\n        if (arrLength == length)\r\n            _report(result, \"\");\r\n        else\r\n            _report(result, _appendTagged(_tag(arrLength, \"Tested\"), _tag(length, \"Against\"), message));\r\n    }\r\n\r\n    /*\r\n        Function: lengthNotEqual(address[])\r\n\r\n        Assert that the length of an 'address[]' is not equal to a given value.\r\n\r\n        : arr.length != length\r\n\r\n        Params:\r\n            arr (address[]) - The array.\r\n            length (uint) - The length.\r\n            message (string) - A message that is sent if the assertion fails.\r\n\r\n        Returns:\r\n            result (bool) - The result.\r\n    */\r\n    function lengthNotEqual(address[] arr, uint length, string message) constant returns (bool result) {\r\n        uint arrLength = arr.length;\r\n        if (arrLength != arr.length)\r\n            _report(result, \"\");\r\n        else\r\n            _report(result, _appendTagged(_tag(arrLength, \"Tested\"), _tag(length, \"Against\"), message));\r\n    }\r\n\r\n    // ************************************** bytes32[] **************************************\r\n\r\n    /*\r\n        Function: equal(bytes32[])\r\n\r\n        Assert that two 'bytes32[]' are equal.\r\n\r\n        : arrA.length == arrB.length\r\n\r\n        and, for all valid indices 'i'\r\n\r\n        : arrA[i] == arrB[i]\r\n\r\n        Params:\r\n            A (bytes32[]) - The first array.\r\n            B (bytes32[]) - The second array.\r\n            message (string) - A message that is sent if the assertion fails.\r\n\r\n        Returns:\r\n            result (bool) - The result.\r\n    */\r\n    function equal(bytes32[] arrA, bytes32[] arrB, string message) constant returns (bool result) {\r\n        result = arrA.length == arrB.length;\r\n        if (result) {\r\n            for (uint i = 0; i < arrA.length; i++) {\r\n                if (arrA[i] != arrB[i]) {\r\n                    result = false;\r\n                    break;\r\n                }\r\n            }\r\n        }\r\n        _report(result, message);\r\n    }\r\n\r\n    /*\r\n        Function: notEqual(bytes32[])\r\n\r\n        Assert that two 'bytes32[]' are not equal.\r\n\r\n        : arrA.length != arrB.length\r\n\r\n        or, for some valid index 'i'\r\n\r\n        : arrA[i] != arrB[i]\r\n\r\n        Params:\r\n            A (bytes32[]) - The first string.\r\n            B (bytes32[]) - The second string.\r\n            message (string) - A message that is sent if the assertion fails.\r\n\r\n        Returns:\r\n            result (bool) - The result.\r\n    */\r\n    function notEqual(bytes32[] arrA, bytes32[] arrB, string message) constant returns (bool result) {\r\n        var r = arrA.length == arrB.length;\r\n        if (r) {\r\n            for (uint i = 0; i < arrA.length; i++) {\r\n                if (arrA[i] == arrB[i]) {\r\n                    r = true;\r\n                    break;\r\n                }\r\n            }\r\n        }\r\n        _report(!r, message);\r\n    }\r\n\r\n    /*\r\n        Function: lengthEqual(bytes32[])\r\n\r\n        Assert that the length of an 'bytes32[]' is equal to a given value.\r\n\r\n        : arr.length == length\r\n\r\n        Params:\r\n            arr (bytes32[]) - The array.\r\n            length (uint) - The length.\r\n            message (string) - A message that is sent if the assertion fails.\r\n\r\n        Returns:\r\n            result (bool) - The result.\r\n    */\r\n    function lengthEqual(bytes32[] arr, uint length, string message) constant returns (bool result) {\r\n        uint arrLength = arr.length;\r\n        if (arrLength == length)\r\n            _report(result, \"\");\r\n        else\r\n            _report(result, _appendTagged(_tag(arrLength, \"Tested\"), _tag(length, \"Against\"), message));\r\n    }\r\n\r\n    /*\r\n        Function: lengthNotEqual(bytes32[])\r\n\r\n        Assert that the length of an 'bytes32[]' is not equal to a given value.\r\n\r\n        : arr.length != length\r\n\r\n        Params:\r\n            arr (bytes32[]) - The array.\r\n            length (uint) - The length.\r\n            message (string) - A message that is sent if the assertion fails.\r\n\r\n        Returns:\r\n            result (bool) - The result.\r\n    */\r\n    function lengthNotEqual(bytes32[] arr, uint length, string message) constant returns (bool result) {\r\n        uint arrLength = arr.length;\r\n        if (arrLength != arr.length)\r\n            _report(result, \"\");\r\n        else\r\n            _report(result, _appendTagged(_tag(arrLength, \"Tested\"), _tag(length, \"Against\"), message));\r\n    }\r\n\r\n    // ************************************** balances **************************************\r\n\r\n    /*\r\n        Function: balanceEqual\r\n\r\n        Assert that the balance of an account 'A' is equal to a given number 'b'.\r\n\r\n        : A.balance = b\r\n\r\n        Params:\r\n            A (address) - The first address.\r\n            b (uint) - The balance.\r\n            message (string) - A message that is sent if the assertion fails.\r\n\r\n        Returns:\r\n            result (bool) - The result.\r\n    */\r\n    function balanceEqual(address A, uint b, string message) constant returns (bool result) {\r\n        result = (A.balance == b);\r\n        _report(result, message);\r\n    }\r\n\r\n    /*\r\n        Function: balanceNotEqual\r\n\r\n        Assert that the balance of an account 'A' is not equal to a given number 'b'.\r\n\r\n        : A.balance != b\r\n\r\n        Params:\r\n            A (address) - The first address.\r\n            b (uint) - The balance.\r\n            message (string) - A message that is sent if the assertion fails.\r\n\r\n        Returns:\r\n            result (bool) - The result.\r\n    */\r\n    function balanceNotEqual(address A, uint b, string message) constant returns (bool result) {\r\n        result = (A.balance != b);\r\n        _report(result, message);\r\n    }\r\n\r\n    /*\r\n        Function: balanceIsZero\r\n\r\n        Assert that the balance of an account 'A' is zero.\r\n\r\n        : A.balance == 0\r\n\r\n        Params:\r\n            A (address) - The first address.\r\n            message (string) - A message that is sent if the assertion fails.\r\n\r\n        Returns:\r\n            result (bool) - The result.\r\n    */\r\n    function balanceIsZero(address A, string message) constant returns (bool result) {\r\n        result = (A.balance == 0);\r\n        _report(result, message);\r\n    }\r\n\r\n    /*\r\n        Function: balanceIsNotZero\r\n\r\n        Assert that the balance of an account 'A' is not zero.\r\n\r\n        : A.balance != 0\r\n\r\n        Params:\r\n            A (address) - The first address.\r\n            message (string) - A message that is sent if the assertion fails.\r\n\r\n        Returns:\r\n            result (bool) - The result.\r\n    */\r\n    function balanceIsNotZero(address A, string message) constant returns (bool result) {\r\n        result = (A.balance != 0);\r\n        _report(result, message);\r\n    }\r\n\r\n    /******************************** internal ********************************/\r\n\r\n        /*\r\n            Function: _report\r\n\r\n            Internal function for triggering <TestEvent>.\r\n\r\n            Params:\r\n                result (bool) - The test result (true or false).\r\n                message (string) - The message that is sent if the assertion fails.\r\n        */\r\n    function _report(bool result, string message) internal constant {\r\n        if(result)\r\n            TestEvent(true, \"\");\r\n        else\r\n            TestEvent(false, message);\r\n    }\r\n\r\n    /*\r\n        Function: _stringsEqual\r\n\r\n        Compares two strings. Taken from the StringUtils contract in the Ethereum Dapp-bin\r\n        (https://github.com/ethereum/dapp-bin/blob/master/library/stringUtils.sol).\r\n\r\n        Params:\r\n            a (string) - The first string.\r\n            b (string) - The second string.\r\n\r\n        Returns:\r\n             result (bool) - 'true' if the strings are equal, otherwise 'false'.\r\n    */\r\n    function _stringsEqual(string a, string b) internal returns (bool result) {\r\n        bytes memory ba = bytes(a);\r\n        bytes memory bb = bytes(b);\r\n\r\n        if (ba.length != bb.length)\r\n            return false;\r\n        for (uint i = 0; i < ba.length; i ++) {\r\n            if (ba[i] != bb[i])\r\n                return false;\r\n        }\r\n        return true;\r\n    }\r\n\r\n    /*\r\n        Function: _itoa\r\n\r\n        Convert a signed integer to a string. Negative numbers gets a '-' in front, e.g. \"-54\".\r\n\r\n        Params:\r\n            n (int) - The integer.\r\n            radix (uint8) - A number between 2 and 16 (inclusive). Characters used are 0-9,a-f\r\n\r\n        Returns:\r\n            result (string) - The resulting string.\r\n    */\r\n    function _itoa(int n, uint8 radix) internal constant returns (string) {\r\n        if (n == 0 || radix < 2 || radix > 16)\r\n            return '0';\r\n        bytes memory bts = new bytes(256);\r\n        uint i;\r\n        bool neg = false;\r\n        if (n < 0) {\r\n            n = -n;\r\n            neg = true;\r\n        }\r\n        while (n > 0) {\r\n            bts[i++] = _utoa(uint8(n % radix)); // Turn it to ascii.\r\n            n /= radix;\r\n        }\r\n        // Reverse\r\n        uint size = i;\r\n        uint j = 0;\r\n        bytes memory rev;\r\n        if (neg) {\r\n            size++;\r\n            j = 1;\r\n            rev = new bytes(size);\r\n            rev[0] = MINUS;\r\n        }\r\n        else\r\n            rev = new bytes(size);\r\n\r\n        for (; j < size; j++)\r\n            rev[j] = bts[size - j - 1];\r\n        return string(rev);\r\n    }\r\n\r\n    /*\r\n        Function: _utoa(uint)\r\n\r\n        Convert an  unsigned integer to a string.\r\n\r\n        Params:\r\n            n (uint) - The unsigned integer.\r\n            radix (uint8) - A number between 2 and 16 (inclusive). Characters used are 0-9,a-f\r\n\r\n        Returns:\r\n            result (string) - The resulting string.\r\n    */\r\n    function _utoa(uint n, uint8 radix) internal constant returns (string) {\r\n        if (n == 0 || radix < 2 || radix > 16)\r\n            return '0';\r\n        bytes memory bts = new bytes(256);\r\n        uint i;\r\n        while (n > 0) {\r\n            bts[i++] = _utoa(uint8(n % radix)); // Turn it to ascii.\r\n            n /= radix;\r\n        }\r\n        // Reverse\r\n        bytes memory rev = new bytes(i);\r\n        for (uint j = 0; j < i; j++)\r\n            rev[j] = bts[i - j - 1];\r\n        return string(rev);\r\n    }\r\n\r\n    /*\r\n        Function: _utoa(uint8)\r\n\r\n        Convert an unsigned 8-bit integer to its ASCII byte representation. Numbers 0-9 are converted to '0'-'9',\r\n        numbers 10-16 to 'a'-'f'. Numbers larger then 16 return the null byte.\r\n\r\n        Params:\r\n            u (uint8) - The unsigned 8-bit integer.\r\n\r\n        Returns:\r\n            result (string) - The ASCII byte.\r\n    */\r\n    function _utoa(uint8 u) internal constant returns (byte) {\r\n        if (u < 10)\r\n            return byte(u + ZERO);\r\n        else if (u < 16)\r\n            return byte(u - 10 + A);\r\n        else\r\n            return 0;\r\n    }\r\n\r\n    /*\r\n        Function: _ltoa\r\n\r\n        Convert an boolean to a string.\r\n\r\n        Params:\r\n            val (bool) - The boolean.\r\n\r\n        Returns:\r\n            result (string) - \"true\" if true, \"false\" if false.\r\n    */\r\n    function _ltoa(bool val) internal constant returns (string) {\r\n        bytes memory b;\r\n        if (val) {\r\n            b = new bytes(4);\r\n            b[0] = 't';\r\n            b[1] = 'r';\r\n            b[2] = 'u';\r\n            b[3] = 'e';\r\n            return string(b);\r\n        }\r\n        else {\r\n            b = new bytes(5);\r\n            b[0] = 'f';\r\n            b[1] = 'a';\r\n            b[2] = 'l';\r\n            b[3] = 's';\r\n            b[4] = 'e';\r\n            return string(b);\r\n        }\r\n    }\r\n\r\n    /*\r\n    function htoa(address addr) constant returns (string) {\r\n        bytes memory bts = new bytes(40);\r\n        bytes20 addrBts = bytes20(addr);\r\n        for (uint i = 0; i < 20; i++) {\r\n            bts[2*i] = addrBts[i] % 16;\r\n            bts[2*i + 1] = (addrBts[i] / 16) % 16;\r\n        }\r\n        return string(bts);\r\n    }\r\n    */\r\n\r\n    /*\r\n        Function: _tag(string)\r\n\r\n        Add a tag to a string. The 'value' and 'tag' strings are returned on the form \"tag: value\".\r\n\r\n        Params:\r\n            value (string) - The value.\r\n            tag (string) - The tag.\r\n\r\n        Returns:\r\n            result (string) - \"tag: value\"\r\n    */\r\n    function _tag(string value, string tag) internal returns (string) {\r\n\r\n        bytes memory valueB = bytes(value);\r\n        bytes memory tagB = bytes(tag);\r\n\r\n        uint vl = valueB.length;\r\n        uint tl = tagB.length;\r\n\r\n        bytes memory newB = new bytes(vl + tl + 2);\r\n\r\n        uint i;\r\n        uint j;\r\n\r\n        for (i = 0; i < tl; i++)\r\n            newB[j++] = tagB[i];\r\n        newB[j++] = ':';\r\n        newB[j++] = ' ';\r\n        for (i = 0; i < vl; i++)\r\n            newB[j++] = valueB[i];\r\n\r\n        return string(newB);\r\n    }\r\n\r\n    /*\r\n        Function: _tag(int)\r\n\r\n        Add a tag to an int.\r\n\r\n        Params:\r\n            value (int) - The value.\r\n            tag (string) - The tag.\r\n\r\n        Returns:\r\n            result (string) - \"tag: _itoa(value)\"\r\n    */\r\n    function _tag(int value, string tag) internal returns (string) {\r\n        var nstr = _itoa(value, 10);\r\n        return _tag(nstr, tag);\r\n    }\r\n\r\n    /*\r\n        Function: _tag(uint)\r\n\r\n        Add a tag to an uint.\r\n\r\n        Params:\r\n            value (uint) - The value.\r\n            tag (string) - The tag.\r\n\r\n        Returns:\r\n            result (string) - \"tag: _utoa(value)\"\r\n    */\r\n    function _tag(uint value, string tag) internal returns (string) {\r\n        var nstr = _utoa(value, 10);\r\n        return _tag(nstr, tag);\r\n    }\r\n\r\n    /*\r\n        Function: _tag(bool)\r\n\r\n        Add a tag to a boolean.\r\n\r\n        Params:\r\n            value (bool) - The value.\r\n            tag (string) - The tag.\r\n\r\n        Returns:\r\n            result (string) - \"tag: _ltoa(value)\"\r\n    */\r\n    function _tag(bool value, string tag) internal returns (string) {\r\n        var nstr = _ltoa(value);\r\n        return _tag(nstr, tag);\r\n    }\r\n\r\n    /*\r\n        Function: _appendTagged(string)\r\n\r\n        Append a tagged value to a string.\r\n\r\n        Params:\r\n            tagged (string) - The tagged value.\r\n            str (string) - The string.\r\n\r\n        Returns:\r\n            result (string) - \"str (tagged)\"\r\n    */\r\n    function _appendTagged(string tagged, string str) internal returns (string) {\r\n\r\n        bytes memory taggedB = bytes(tagged);\r\n        bytes memory strB = bytes(str);\r\n\r\n        uint sl = strB.length;\r\n        uint tl = taggedB.length;\r\n\r\n        bytes memory newB = new bytes(sl + tl + 3);\r\n\r\n        uint i;\r\n        uint j;\r\n\r\n        for (i = 0; i < sl; i++)\r\n            newB[j++] = strB[i];\r\n        newB[j++] = ' ';\r\n        newB[j++] = '(';\r\n        for (i = 0; i < tl; i++)\r\n            newB[j++] = taggedB[i];\r\n        newB[j++] = ')';\r\n\r\n        return string(newB);\r\n    }\r\n\r\n    /*\r\n        Function: _appendTagged(string, string)\r\n\r\n        Append two tagged values to a string.\r\n\r\n        Params:\r\n            tagged0 (string) - The first tagged value.\r\n            tagged1 (string) - The second tagged value.\r\n            str (string) - The string.\r\n\r\n        Returns:\r\n            result (string) - \"str (tagged0, tagged1)\"\r\n    */\r\n    function _appendTagged(string tagged0, string tagged1, string str) internal returns (string) {\r\n\r\n        bytes memory tagged0B = bytes(tagged0);\r\n        bytes memory tagged1B = bytes(tagged1);\r\n        bytes memory strB = bytes(str);\r\n\r\n        uint sl = strB.length;\r\n        uint t0l = tagged0B.length;\r\n        uint t1l = tagged1B.length;\r\n\r\n        bytes memory newB = new bytes(sl + t0l + t1l + 5);\r\n\r\n        uint i;\r\n        uint j;\r\n\r\n        for (i = 0; i < sl; i++)\r\n            newB[j++] = strB[i];\r\n        newB[j++] = ' ';\r\n        newB[j++] = '(';\r\n        for (i = 0; i < t0l; i++)\r\n            newB[j++] = tagged0B[i];\r\n        newB[j++] = ',';\r\n        newB[j++] = ' ';\r\n        for (i = 0; i < t1l; i++)\r\n            newB[j++] = tagged1B[i];\r\n        newB[j++] = ')';\r\n\r\n        return string(newB);\r\n    }\r\n\r\n}",
  "sourcePath": "D:\\Outsurce\\LENDCO\\github\\LENDCO-Utility-Token\\truffle\\contracts\\Assert.sol",
  "compiler": {
    "name": "solc",
    "version": "0.4.19+commit.c4cbbb05.Emscripten.clang"
  },
  "schemaVersion": "2.0.0",
  "updatedAt": "2018-03-21T10:56:13.103Z"
}