{
  "contractName": "Ownable",
  "abi": [
    {
      "constant": true,
      "inputs": [],
      "name": "owner",
      "outputs": [
        {
          "name": "",
          "type": "address"
        }
      ],
      "payable": false,
      "stateMutability": "view",
      "type": "function"
    },
    {
      "inputs": [],
      "payable": false,
      "stateMutability": "nonpayable",
      "type": "constructor"
    },
    {
      "constant": false,
      "inputs": [
        {
          "name": "newOwner",
          "type": "address"
        }
      ],
      "name": "transferOwnership",
      "outputs": [],
      "payable": false,
      "stateMutability": "nonpayable",
      "type": "function"
    }
  ],
  "bytecode": "0x6060604052341561000f57600080fd5b336000806101000a81548173ffffffffffffffffffffffffffffffffffffffff021916908373ffffffffffffffffffffffffffffffffffffffff16021790555061020a8061005e6000396000f30060606040526004361061004c576000357c0100000000000000000000000000000000000000000000000000000000900463ffffffff1680638da5cb5b14610051578063f2fde38b146100a6575b600080fd5b341561005c57600080fd5b6100646100df565b604051808273ffffffffffffffffffffffffffffffffffffffff1673ffffffffffffffffffffffffffffffffffffffff16815260200191505060405180910390f35b34156100b157600080fd5b6100dd600480803573ffffffffffffffffffffffffffffffffffffffff16906020019091905050610104565b005b6000809054906101000a900473ffffffffffffffffffffffffffffffffffffffff1681565b6000809054906101000a900473ffffffffffffffffffffffffffffffffffffffff1673ffffffffffffffffffffffffffffffffffffffff163373ffffffffffffffffffffffffffffffffffffffff1614151561015f57600080fd5b600073ffffffffffffffffffffffffffffffffffffffff168173ffffffffffffffffffffffffffffffffffffffff161415151561019b57600080fd5b806000806101000a81548173ffffffffffffffffffffffffffffffffffffffff021916908373ffffffffffffffffffffffffffffffffffffffff160217905550505600a165627a7a72305820e82764d89e52138a26d04c5baf1f50c7dc8035046406f466f3c2780d7d68aa480029",
  "source": "pragma solidity ^0.4.15;\r\n\r\ncontract ERC20Basic {\r\n\tuint256 public totalSupply;\r\n\tfunction balanceOf(address who) public constant returns (uint256);\r\n\tfunction transfer(address to, uint256 value) public returns (bool);\r\n\tevent Transfer(address indexed from, address indexed to, uint256 value);\r\n}\r\ncontract ERC20 is ERC20Basic {\r\n\tfunction allowance(address owner, address spender) public constant returns (uint256);\r\n\tfunction transferFrom(address from, address to, uint256 value) public returns (bool);\r\n\tfunction approve(address spender, uint256 value) public returns (bool);\r\n\tevent Approval(address indexed owner, address indexed spender, uint256 value);\r\n}\r\nlibrary SafeMath {\r\n\tfunction mul(uint256 a, uint256 b) internal constant returns (uint256) {\r\n\t\tuint256 c = a * b;\r\n\t\tassert(a == 0 || c / a == b);\r\n\t\treturn c;\r\n\t}\r\n\r\n\tfunction div(uint256 a, uint256 b) internal constant returns (uint256) {\r\n\t\tuint256 c = a / b;\r\n\t\treturn c;\r\n\t}\r\n\r\n\tfunction sub(uint256 a, uint256 b) internal constant returns (uint256) {\r\n\t\tassert(b <= a);\r\n\t\treturn a - b;\r\n\t}\r\n\r\n\tfunction add(uint256 a, uint256 b) internal constant returns (uint256) {\r\n\t\tuint256 c = a + b;\r\n\t\tassert(c >= a);\r\n\t\treturn c;\r\n\t}\r\n}\r\ncontract BasicToken is ERC20Basic {\r\n\t\t\r\n\tusing SafeMath for uint256;\r\n\r\n\tmapping(address => uint256) balances;\r\n\r\n\tfunction transfer(address _to, uint256 _value) public returns (bool) {\r\n\t\tbalances[msg.sender] = balances[msg.sender].sub(_value);\r\n\t\tbalances[_to] = balances[_to].add(_value);\r\n\t\tTransfer(msg.sender, _to, _value);\r\n\t\treturn true;\r\n\t}\r\n\r\n\tfunction balanceOf(address _owner) public constant returns (uint256 balance) {\r\n\t\treturn balances[_owner];\r\n\t}\r\n}\r\n\r\ncontract StandardToken is ERC20, BasicToken {\r\n\r\n\tmapping (address => mapping (address => uint256)) allowed;\r\n\r\n\tfunction transferFrom(address _from, address _to, uint256 _value) public returns (bool) {\r\n\t\tvar _allowance = allowed[_from][msg.sender];\r\n\r\n\t\tbalances[_to] = balances[_to].add(_value);\r\n\t\tbalances[_from] = balances[_from].sub(_value);\r\n\t\tallowed[_from][msg.sender] = _allowance.sub(_value);\r\n\t\tTransfer(_from, _to, _value);\r\n\t\treturn true;\r\n\t}\r\n\r\n\tfunction approve(address _spender, uint256 _value) public returns (bool) {\r\n\t\trequire((_value == 0) || (allowed[msg.sender][_spender] == 0));\r\n\r\n\t\tallowed[msg.sender][_spender] = _value;\r\n\t\tApproval(msg.sender, _spender, _value);\r\n\t\treturn true;\r\n\t}\r\n\r\n\tfunction allowance(address _owner, address _spender) public constant returns (uint256 remaining) {\r\n\t\treturn allowed[_owner][_spender];\r\n\t}\r\n\r\n}\r\n\r\ncontract Ownable {\r\n\taddress public owner;\r\n\tfunction Ownable() public { owner = msg.sender; }\r\n\tmodifier onlyOwner() {\r\n\t\trequire(msg.sender == owner);\r\n\t\t_;\r\n\t}\r\n\tfunction transferOwnership(address newOwner) public onlyOwner {\r\n\t\trequire(newOwner != address(0));      \r\n\t\towner = newOwner;\r\n\t}\r\n}\r\ncontract MintableToken is StandardToken, Ownable {\r\n\t\t\r\n\tevent Mint(address indexed to, uint256 amount);\r\n\t\r\n\tevent MintFinished();\r\n\r\n\tbool public mintingFinished = false;\r\n\r\n\tmodifier canMint() {\r\n\t\trequire(!mintingFinished);\r\n\t\t_;\r\n\t}\r\n\r\n\tfunction mint(address _to, uint256 _amount) public onlyOwner canMint returns (bool) {\r\n\t\ttotalSupply = totalSupply.add(_amount);\r\n\t\tbalances[_to] = balances[_to].add(_amount);\r\n\t\tMint(_to, _amount);\r\n\t\treturn true;\r\n\t}\r\n\r\n\tfunction finishMinting() public onlyOwner returns (bool) {\r\n\t\tmintingFinished = true;\r\n\t\tMintFinished();\r\n\t\treturn true;\r\n\t}\r\n\t\r\n}\r\n\r\ncontract LENDCO_Token is MintableToken {\r\n\t// 150`000`000 tokens\r\n\tuint256 public totalSupply = 150000000000000000000000000; \r\n\t\r\n\tstring public constant name = \"LENDCO\";\r\n\t\r\n\tstring public constant symbol = \"LOAN\";\r\n\t\r\n\tuint32 public constant decimals = 18;\r\n\t\t\r\n}\r\n\r\n\r\ncontract MainSale is Ownable {\r\n\t\t\r\n\tusing SafeMath for uint;\r\n\t\r\n\taddress public multisig;\r\n\r\n\tuint public restrictedPercent;\r\n\r\n\taddress public restricted;\r\n\r\n\tLENDCO_Token public token = new LENDCO_Token();\r\n\r\n\tuint public start;\r\n\t\r\n\tuint public period;\r\n\r\n\tuint public hardcap;\r\n\r\n\tuint public rate;\r\n\t\r\n\tuint public softcap;\r\n\t\r\n\tmapping(address => uint) public balances;\r\n\r\n\tfunction MainSale() public {\r\n\t\t// Адрес куда будет перечислятся эфир — multisig.\r\n  \t\tmultisig = 0x2fc46fF16777d01e08514345589Ae98546FAB34d;\r\n  \t\t// Адрес куда будут перечисляться токены для наших нужд — restricted.\r\n\t\trestricted = 0x22A0f4407d7A08e3f2DCb5B4e3b7d94b65a1E225;\r\n\t\t// Процент токенов на наши нужды restrictedPercent пусть будет 40%.\r\n\t\trestrictedPercent = 40;\r\n\t\t// rate у нас будет — 100000000000000000000\r\n\t\trate = 100000000000000000000; // 100 * 10^18\r\n\t\t// Время начала ICO  — GMT в UNIX формате — start. В UNIX — 1500379200.\r\n\t\t// now -- выдает время на момент публикации контракта\r\n\t\tstart = now;\r\n\r\n\t\tperiod = 28;\r\n\t\t\r\n\t\thardcap = 10000000000000000000000; // 10`000 * 10^18\r\n\t\t\r\n\t\tsoftcap = 1000000000000000000000; // 1`000 * 10^18\r\n\t}\r\n\r\n\t// модификатор проверяет активна ли сейчас распрдажа, \r\n\t// если нет, останавливает выполнение кода\r\n\tmodifier saleIsOn() {\r\n\t\trequire(now > start && now < start + period * 1 days);\r\n\t\t_;\r\n\t}\r\n\t// модификатор проверяет собранна ли максимально необходимая сумма средств\r\n\tmodifier isUnderHardCap() {\r\n\t\trequire(multisig.balance <= hardcap);\r\n\t\t_;\r\n\t}\r\n\t// функция возвращает средства инвесторам при условии \r\n\t// если закончился период сбора средств и сумма не набрала минимального капитала\r\n\t// данную фукцию вызывает инвестор\r\n\tfunction refund() public {\r\n\t\trequire(this.balance < softcap && now > start + period * 1 days);\r\n\t\tuint value = balances[msg.sender]; \r\n\t\tbalances[msg.sender] = 0; \r\n\t\tmsg.sender.transfer(value); \r\n\t}\r\n\r\n\tfunction finishMinting() public onlyOwner {\r\n\t\tif(this.balance > softcap) {\r\n\t\t\tmultisig.transfer(this.balance);\r\n\t\t\tuint issuedTokenSupply = token.totalSupply();\r\n\t\t\tuint restrictedTokens = issuedTokenSupply.mul(restrictedPercent).div(100 - restrictedPercent);\r\n\t\t\ttoken.mint(restricted, restrictedTokens);\r\n\t\t\ttoken.finishMinting();\r\n\t\t}\r\n\t}\r\n\r\n\tfunction createTokens() public isUnderHardCap saleIsOn payable {\r\n\t\tuint tokens = rate.mul(msg.value).div(1 ether);\r\n\t\tuint bonusTokens = 0;\r\n\r\n\t\t// условия бонусной системы зависит от временных этапов\r\n\r\n\t\tif(now < start + (period * 1 days).div(4)) {\r\n\t\t\tbonusTokens = tokens.div(4);\r\n\t\t} else if(now >= start + (period * 1 days).div(4) && now < start + (period * 1 days).div(4).mul(2)) {\r\n\t\t\tbonusTokens = tokens.div(10);\r\n\t\t} else if(now >= start + (period * 1 days).div(4).mul(2) && now < start + (period * 1 days).div(4).mul(3)) {\r\n\t\t\tbonusTokens = tokens.div(20);\r\n\t\t}\r\n\r\n\t\ttokens += bonusTokens;\r\n\t\ttoken.mint(msg.sender, tokens);\r\n\t\tbalances[msg.sender] = balances[msg.sender].add(msg.value);\r\n\t}\r\n\r\n\tfunction() external payable {\r\n\t\tcreateTokens();\r\n\t}\t\t\r\n}",
  "sourcePath": "D:\\Outsurce\\LENDCO\\github\\LENDCO-Utility-Token\\truffle\\contracts\\LENDCO_Token.sol",
  "compiler": {
    "name": "solc",
    "version": "0.4.19+commit.c4cbbb05.Emscripten.clang"
  },
  "schemaVersion": "2.0.0",
  "updatedAt": "2018-03-15T10:08:32.704Z"
}