{
  "contractName": "StandardToken",
  "abi": [
    {
      "constant": true,
      "inputs": [],
      "name": "totalSupply",
      "outputs": [
        {
          "name": "",
          "type": "uint256"
        }
      ],
      "payable": false,
      "stateMutability": "view",
      "type": "function"
    },
    {
      "constant": true,
      "inputs": [
        {
          "name": "_owner",
          "type": "address"
        }
      ],
      "name": "balanceOf",
      "outputs": [
        {
          "name": "balance",
          "type": "uint256"
        }
      ],
      "payable": false,
      "stateMutability": "view",
      "type": "function"
    },
    {
      "constant": false,
      "inputs": [
        {
          "name": "_to",
          "type": "address"
        },
        {
          "name": "_value",
          "type": "uint256"
        }
      ],
      "name": "transfer",
      "outputs": [
        {
          "name": "",
          "type": "bool"
        }
      ],
      "payable": false,
      "stateMutability": "nonpayable",
      "type": "function"
    },
    {
      "anonymous": false,
      "inputs": [
        {
          "indexed": true,
          "name": "owner",
          "type": "address"
        },
        {
          "indexed": true,
          "name": "spender",
          "type": "address"
        },
        {
          "indexed": false,
          "name": "value",
          "type": "uint256"
        }
      ],
      "name": "Approval",
      "type": "event"
    },
    {
      "anonymous": false,
      "inputs": [
        {
          "indexed": true,
          "name": "from",
          "type": "address"
        },
        {
          "indexed": true,
          "name": "to",
          "type": "address"
        },
        {
          "indexed": false,
          "name": "value",
          "type": "uint256"
        }
      ],
      "name": "Transfer",
      "type": "event"
    },
    {
      "constant": false,
      "inputs": [
        {
          "name": "_from",
          "type": "address"
        },
        {
          "name": "_to",
          "type": "address"
        },
        {
          "name": "_value",
          "type": "uint256"
        }
      ],
      "name": "transferFrom",
      "outputs": [
        {
          "name": "",
          "type": "bool"
        }
      ],
      "payable": false,
      "stateMutability": "nonpayable",
      "type": "function"
    },
    {
      "constant": false,
      "inputs": [
        {
          "name": "_spender",
          "type": "address"
        },
        {
          "name": "_value",
          "type": "uint256"
        }
      ],
      "name": "approve",
      "outputs": [
        {
          "name": "",
          "type": "bool"
        }
      ],
      "payable": false,
      "stateMutability": "nonpayable",
      "type": "function"
    },
    {
      "constant": true,
      "inputs": [
        {
          "name": "_owner",
          "type": "address"
        },
        {
          "name": "_spender",
          "type": "address"
        }
      ],
      "name": "allowance",
      "outputs": [
        {
          "name": "remaining",
          "type": "uint256"
        }
      ],
      "payable": false,
      "stateMutability": "view",
      "type": "function"
    }
  ],
  "bytecode": "0x6060604052341561000f57600080fd5b6109978061001e6000396000f300606060405260043610610078576000357c0100000000000000000000000000000000000000000000000000000000900463ffffffff168063095ea7b31461007d57806318160ddd146100d757806323b872dd1461010057806370a0823114610179578063a9059cbb146101c6578063dd62ed3e14610220575b600080fd5b341561008857600080fd5b6100bd600480803573ffffffffffffffffffffffffffffffffffffffff1690602001909190803590602001909190505061028c565b604051808215151515815260200191505060405180910390f35b34156100e257600080fd5b6100ea610413565b6040518082815260200191505060405180910390f35b341561010b57600080fd5b61015f600480803573ffffffffffffffffffffffffffffffffffffffff1690602001909190803573ffffffffffffffffffffffffffffffffffffffff16906020019091908035906020019091905050610419565b604051808215151515815260200191505060405180910390f35b341561018457600080fd5b6101b0600480803573ffffffffffffffffffffffffffffffffffffffff169060200190919050506106c9565b6040518082815260200191505060405180910390f35b34156101d157600080fd5b610206600480803573ffffffffffffffffffffffffffffffffffffffff16906020019091908035906020019091905050610712565b604051808215151515815260200191505060405180910390f35b341561022b57600080fd5b610276600480803573ffffffffffffffffffffffffffffffffffffffff1690602001909190803573ffffffffffffffffffffffffffffffffffffffff169060200190919050506108ad565b6040518082815260200191505060405180910390f35b60008082148061031857506000600260003373ffffffffffffffffffffffffffffffffffffffff1673ffffffffffffffffffffffffffffffffffffffff16815260200190815260200160002060008573ffffffffffffffffffffffffffffffffffffffff1673ffffffffffffffffffffffffffffffffffffffff16815260200190815260200160002054145b151561032357600080fd5b81600260003373ffffffffffffffffffffffffffffffffffffffff1673ffffffffffffffffffffffffffffffffffffffff16815260200190815260200160002060008573ffffffffffffffffffffffffffffffffffffffff1673ffffffffffffffffffffffffffffffffffffffff168152602001908152602001600020819055508273ffffffffffffffffffffffffffffffffffffffff163373ffffffffffffffffffffffffffffffffffffffff167f8c5be1e5ebec7d5bd14f71427d1e84f3dd0314c0f7b2291e5b200ac8c7c3b925846040518082815260200191505060405180910390a36001905092915050565b60005481565b600080600260008673ffffffffffffffffffffffffffffffffffffffff1673ffffffffffffffffffffffffffffffffffffffff16815260200190815260200160002060003373ffffffffffffffffffffffffffffffffffffffff1673ffffffffffffffffffffffffffffffffffffffff1681526020019081526020016000205490506104ed83600160008773ffffffffffffffffffffffffffffffffffffffff1673ffffffffffffffffffffffffffffffffffffffff1681526020019081526020016000205461093490919063ffffffff16565b600160008673ffffffffffffffffffffffffffffffffffffffff1673ffffffffffffffffffffffffffffffffffffffff1681526020019081526020016000208190555061058283600160008873ffffffffffffffffffffffffffffffffffffffff1673ffffffffffffffffffffffffffffffffffffffff1681526020019081526020016000205461095290919063ffffffff16565b600160008773ffffffffffffffffffffffffffffffffffffffff1673ffffffffffffffffffffffffffffffffffffffff168152602001908152602001600020819055506105d8838261095290919063ffffffff16565b600260008773ffffffffffffffffffffffffffffffffffffffff1673ffffffffffffffffffffffffffffffffffffffff16815260200190815260200160002060003373ffffffffffffffffffffffffffffffffffffffff1673ffffffffffffffffffffffffffffffffffffffff168152602001908152602001600020819055508373ffffffffffffffffffffffffffffffffffffffff168573ffffffffffffffffffffffffffffffffffffffff167fddf252ad1be2c89b69c2b068fc378daa952ba7f163c4a11628f55a4df523b3ef856040518082815260200191505060405180910390a360019150509392505050565b6000600160008373ffffffffffffffffffffffffffffffffffffffff1673ffffffffffffffffffffffffffffffffffffffff168152602001908152602001600020549050919050565b600061076682600160003373ffffffffffffffffffffffffffffffffffffffff1673ffffffffffffffffffffffffffffffffffffffff1681526020019081526020016000205461095290919063ffffffff16565b600160003373ffffffffffffffffffffffffffffffffffffffff1673ffffffffffffffffffffffffffffffffffffffff168152602001908152602001600020819055506107fb82600160008673ffffffffffffffffffffffffffffffffffffffff1673ffffffffffffffffffffffffffffffffffffffff1681526020019081526020016000205461093490919063ffffffff16565b600160008573ffffffffffffffffffffffffffffffffffffffff1673ffffffffffffffffffffffffffffffffffffffff168152602001908152602001600020819055508273ffffffffffffffffffffffffffffffffffffffff163373ffffffffffffffffffffffffffffffffffffffff167fddf252ad1be2c89b69c2b068fc378daa952ba7f163c4a11628f55a4df523b3ef846040518082815260200191505060405180910390a36001905092915050565b6000600260008473ffffffffffffffffffffffffffffffffffffffff1673ffffffffffffffffffffffffffffffffffffffff16815260200190815260200160002060008373ffffffffffffffffffffffffffffffffffffffff1673ffffffffffffffffffffffffffffffffffffffff16815260200190815260200160002054905092915050565b600080828401905083811015151561094857fe5b8091505092915050565b600082821115151561096057fe5b8183039050929150505600a165627a7a7230582014abad4709b244628300f946c166e720d56e16164752efbf58c64fe656888e7f0029",
  "source": "pragma solidity ^0.4.15;\r\n\r\ncontract ERC20Basic {\r\n\tuint256 public totalSupply;\r\n\tfunction balanceOf(address who) public constant returns (uint256);\r\n\tfunction transfer(address to, uint256 value) public returns (bool);\r\n\tevent Transfer(address indexed from, address indexed to, uint256 value);\r\n}\r\ncontract ERC20 is ERC20Basic {\r\n\tfunction allowance(address owner, address spender) public constant returns (uint256);\r\n\tfunction transferFrom(address from, address to, uint256 value) public returns (bool);\r\n\tfunction approve(address spender, uint256 value) public returns (bool);\r\n\tevent Approval(address indexed owner, address indexed spender, uint256 value);\r\n}\r\nlibrary SafeMath {\r\n\tfunction mul(uint256 a, uint256 b) internal constant returns (uint256) {\r\n\t\tuint256 c = a * b;\r\n\t\tassert(a == 0 || c / a == b);\r\n\t\treturn c;\r\n\t}\r\n\r\n\tfunction div(uint256 a, uint256 b) internal constant returns (uint256) {\r\n\t\tuint256 c = a / b;\r\n\t\treturn c;\r\n\t}\r\n\r\n\tfunction sub(uint256 a, uint256 b) internal constant returns (uint256) {\r\n\t\tassert(b <= a);\r\n\t\treturn a - b;\r\n\t}\r\n\r\n\tfunction add(uint256 a, uint256 b) internal constant returns (uint256) {\r\n\t\tuint256 c = a + b;\r\n\t\tassert(c >= a);\r\n\t\treturn c;\r\n\t}\r\n}\r\ncontract BasicToken is ERC20Basic {\r\n\t\t\r\n\tusing SafeMath for uint256;\r\n\r\n\tmapping(address => uint256) balances;\r\n\r\n\tfunction transfer(address _to, uint256 _value) public returns (bool) {\r\n\t\tbalances[msg.sender] = balances[msg.sender].sub(_value);\r\n\t\tbalances[_to] = balances[_to].add(_value);\r\n\t\tTransfer(msg.sender, _to, _value);\r\n\t\treturn true;\r\n\t}\r\n\r\n\tfunction balanceOf(address _owner) public constant returns (uint256 balance) {\r\n\t\treturn balances[_owner];\r\n\t}\r\n}\r\n\r\ncontract StandardToken is ERC20, BasicToken {\r\n\r\n\tmapping (address => mapping (address => uint256)) allowed;\r\n\r\n\tfunction transferFrom(address _from, address _to, uint256 _value) public returns (bool) {\r\n\t\tvar _allowance = allowed[_from][msg.sender];\r\n\r\n\t\tbalances[_to] = balances[_to].add(_value);\r\n\t\tbalances[_from] = balances[_from].sub(_value);\r\n\t\tallowed[_from][msg.sender] = _allowance.sub(_value);\r\n\t\tTransfer(_from, _to, _value);\r\n\t\treturn true;\r\n\t}\r\n\r\n\tfunction approve(address _spender, uint256 _value) public returns (bool) {\r\n\t\trequire((_value == 0) || (allowed[msg.sender][_spender] == 0));\r\n\r\n\t\tallowed[msg.sender][_spender] = _value;\r\n\t\tApproval(msg.sender, _spender, _value);\r\n\t\treturn true;\r\n\t}\r\n\r\n\tfunction allowance(address _owner, address _spender) public constant returns (uint256 remaining) {\r\n\t\treturn allowed[_owner][_spender];\r\n\t}\r\n\r\n}\r\n\r\ncontract Ownable {\r\n\taddress public owner;\r\n\tfunction Ownable() public { owner = msg.sender; }\r\n\tmodifier onlyOwner() {\r\n\t\trequire(msg.sender == owner);\r\n\t\t_;\r\n\t}\r\n\tfunction transferOwnership(address newOwner) public onlyOwner {\r\n\t\trequire(newOwner != address(0));      \r\n\t\towner = newOwner;\r\n\t}\r\n}\r\n\r\n\r\ncontract LENDCO_Token is StandardToken {\r\n\t// 300`000`000 tokens\r\n\tuint256 public totalSupply = 300000000000000000000000000; \r\n\t// Company name\r\n\tstring public constant name = \"LENDCO\";\r\n\t// Token symbol\r\n\tstring public constant symbol = \"LOAN\";\r\n\t\r\n\tuint32 public constant decimals = 18;\r\n}\r\n\r\n\r\ncontract MainSale is Ownable {\r\n\t\t\r\n\tusing SafeMath for uint;\r\n\t\r\n\taddress public multisig;\r\n\r\n\tuint public restrictedPercent;\r\n\r\n\taddress public restricted;\r\n\r\n\tLENDCO_Token public token = new LENDCO_Token();\r\n\r\n\tuint public start;\r\n\t\r\n\tuint public period;\r\n\r\n\tuint public hardcap;\r\n\r\n\tuint public rate;\r\n\t\r\n\tuint public softcap;\r\n\t\r\n\tmapping(address => uint) public balances;\r\n\r\n\tfunction MainSale() public {\r\n\t\t// Адрес куда будет перечислятся эфир — multisig.\r\n  \t\tmultisig = 0x2fc46fF16777d01e08514345589Ae98546FAB34d;\r\n  \t\t// Адрес куда будут перечисляться токены для наших нужд — restricted.\r\n\t\trestricted = 0x22A0f4407d7A08e3f2DCb5B4e3b7d94b65a1E225;\r\n\t\t// Процент токенов на наши нужды restrictedPercent пусть будет 40%.\r\n\t\trestrictedPercent = 40;\r\n\t\t// rate у нас будет — 100000000000000000000\r\n\t\trate = 100000000000000000000; // 100 * 10^18\r\n\t\t// Время начала ICO  — GMT в UNIX формате — start. В UNIX — 1500379200.\r\n\t\t// now -- выдает время на момент публикации контракта\r\n\t\tstart = now;\r\n\r\n\t\tperiod = 28;\r\n\t\t\r\n\t\thardcap = 10000000000000000000000; // 10`000 * 10^18\r\n\t\t\r\n\t\tsoftcap = 1000000000000000000000; // 1`000 * 10^18\r\n\t}\r\n\r\n\t// модификатор проверяет активна ли сейчас распрдажа, \r\n\t// если нет, останавливает выполнение кода\r\n\tmodifier saleIsOn() {\r\n\t\trequire(now > start && now < start + period * 1 days);\r\n\t\t_;\r\n\t}\r\n\t// модификатор проверяет собранна ли максимально необходимая сумма средств\r\n\tmodifier isUnderHardCap() {\r\n\t\trequire(multisig.balance <= hardcap);\r\n\t\t_;\r\n\t}\r\n\t// функция возвращает средства инвесторам при условии \r\n\t// если закончился период сбора средств и сумма не набрала минимального капитала\r\n\t// данную фукцию вызывает инвестор\r\n\tfunction refund() public {\r\n\t\trequire(this.balance < softcap && now > start + period * 1 days);\r\n\t\tuint value = balances[msg.sender]; \r\n\t\tbalances[msg.sender] = 0; \r\n\t\tmsg.sender.transfer(value); \r\n\t}\r\n\r\n\tfunction createTokens() public isUnderHardCap saleIsOn payable {\r\n\t\tuint tokens = rate.mul(msg.value).div(1 ether);\r\n\t\tuint bonusTokens = 0;\r\n\r\n\t\t// условия бонусной системы зависит от временных этапов\r\n\r\n\t\tif(now < start + (period * 1 days).div(4)) {\r\n\t\t\tbonusTokens = tokens.div(4);\r\n\t\t} else if(now >= start + (period * 1 days).div(4) && now < start + (period * 1 days).div(4).mul(2)) {\r\n\t\t\tbonusTokens = tokens.div(10);\r\n\t\t} else if(now >= start + (period * 1 days).div(4).mul(2) && now < start + (period * 1 days).div(4).mul(3)) {\r\n\t\t\tbonusTokens = tokens.div(20);\r\n\t\t}\r\n\r\n\t\ttokens += bonusTokens;\r\n\t\tbalances[msg.sender] = balances[msg.sender].add(msg.value);\r\n\t}\r\n\r\n\tfunction() external payable {\r\n\t\tcreateTokens();\r\n\t}\t\t\r\n}",
  "sourcePath": "D:\\Outsurce\\LENDCO\\github\\LENDCO-Utility-Token\\truffle\\contracts\\LENDCO_Token.sol",
  "compiler": {
    "name": "solc",
    "version": "0.4.19+commit.c4cbbb05.Emscripten.clang"
  },
  "schemaVersion": "2.0.0",
  "updatedAt": "2018-03-15T13:48:26.133Z"
}